{
  "contractName": "LurryTokenSale",
  "abi": [
    {
      "inputs": [
        {
          "internalType": "contract LurryToken",
          "name": "_tokenContract",
          "type": "address"
        },
        {
          "internalType": "uint256",
          "name": "_tokenPrice",
          "type": "uint256"
        }
      ],
      "stateMutability": "nonpayable",
      "type": "constructor"
    },
    {
      "anonymous": false,
      "inputs": [
        {
          "indexed": false,
          "internalType": "address",
          "name": "_buyer",
          "type": "address"
        },
        {
          "indexed": false,
          "internalType": "uint256",
          "name": "_amount",
          "type": "uint256"
        }
      ],
      "name": "Sell",
      "type": "event"
    },
    {
      "inputs": [],
      "name": "tokenContract",
      "outputs": [
        {
          "internalType": "contract LurryToken",
          "name": "",
          "type": "address"
        }
      ],
      "stateMutability": "view",
      "type": "function",
      "constant": true
    },
    {
      "inputs": [],
      "name": "tokenPrice",
      "outputs": [
        {
          "internalType": "uint256",
          "name": "",
          "type": "uint256"
        }
      ],
      "stateMutability": "view",
      "type": "function",
      "constant": true
    },
    {
      "inputs": [],
      "name": "tokensSold",
      "outputs": [
        {
          "internalType": "uint256",
          "name": "",
          "type": "uint256"
        }
      ],
      "stateMutability": "view",
      "type": "function",
      "constant": true
    },
    {
      "inputs": [
        {
          "internalType": "uint256",
          "name": "_numberOfTokens",
          "type": "uint256"
        }
      ],
      "name": "buyTokens",
      "outputs": [],
      "stateMutability": "payable",
      "type": "function",
      "payable": true
    },
    {
      "inputs": [],
      "name": "endSale",
      "outputs": [],
      "stateMutability": "nonpayable",
      "type": "function"
    }
  ],
  "bytecode": "0x608060405234801561001057600080fd5b50604051610ab6380380610ab68339818101604052810190610032919061016c565b336000806101000a81548173ffffffffffffffffffffffffffffffffffffffff021916908373ffffffffffffffffffffffffffffffffffffffff16021790555081600160006101000a81548173ffffffffffffffffffffffffffffffffffffffff021916908373ffffffffffffffffffffffffffffffffffffffff1602179055508060028190555050506101ac565b600080fd5b600073ffffffffffffffffffffffffffffffffffffffff82169050919050565b60006100f1826100c6565b9050919050565b6000610103826100e6565b9050919050565b610113816100f8565b811461011e57600080fd5b50565b6000815190506101308161010a565b92915050565b6000819050919050565b61014981610136565b811461015457600080fd5b50565b60008151905061016681610140565b92915050565b60008060408385031215610183576101826100c1565b5b600061019185828601610121565b92505060206101a285828601610157565b9150509250929050565b6108fb806101bb6000396000f3fe60806040526004361061004a5760003560e01c80633610724e1461004f578063380d831b1461006b578063518ab2a81461008257806355a373d6146100ad5780637ff9b596146100d8575b600080fd5b61006960048036038101906100649190610589565b610103565b005b34801561007757600080fd5b506100806102c0565b005b34801561008e57600080fd5b506100976104e5565b6040516100a491906105c5565b60405180910390f35b3480156100b957600080fd5b506100c26104eb565b6040516100cf919061065f565b60405180910390f35b3480156100e457600080fd5b506100ed610511565b6040516100fa91906105c5565b60405180910390f35b61010f81600254610517565b341461011a57600080fd5b80600160009054906101000a900473ffffffffffffffffffffffffffffffffffffffff1673ffffffffffffffffffffffffffffffffffffffff166370a08231306040518263ffffffff1660e01b8152600401610176919061069b565b602060405180830381865afa158015610193573d6000803e3d6000fd5b505050506040513d601f19601f820116820180604052508101906101b791906106cb565b10156101c257600080fd5b600160009054906101000a900473ffffffffffffffffffffffffffffffffffffffff1673ffffffffffffffffffffffffffffffffffffffff1663a9059cbb33836040518363ffffffff1660e01b815260040161021f9291906106f8565b6020604051808303816000875af115801561023e573d6000803e3d6000fd5b505050506040513d601f19601f820116820180604052508101906102629190610759565b61026b57600080fd5b806003600082825461027d91906107b5565b925050819055507f5e5e995ce3133561afceaa51a9a154d5db228cd7525d34df5185582c18d3df0933826040516102b59291906106f8565b60405180910390a150565b60008054906101000a900473ffffffffffffffffffffffffffffffffffffffff1673ffffffffffffffffffffffffffffffffffffffff163373ffffffffffffffffffffffffffffffffffffffff161461031857600080fd5b600160009054906101000a900473ffffffffffffffffffffffffffffffffffffffff1673ffffffffffffffffffffffffffffffffffffffff1663a9059cbb60008054906101000a900473ffffffffffffffffffffffffffffffffffffffff16600160009054906101000a900473ffffffffffffffffffffffffffffffffffffffff1673ffffffffffffffffffffffffffffffffffffffff166370a08231306040518263ffffffff1660e01b81526004016103d2919061069b565b602060405180830381865afa1580156103ef573d6000803e3d6000fd5b505050506040513d601f19601f8201168201806040525081019061041391906106cb565b6040518363ffffffff1660e01b81526004016104309291906106f8565b6020604051808303816000875af115801561044f573d6000803e3d6000fd5b505050506040513d601f19601f820116820180604052508101906104739190610759565b61047c57600080fd5b60008054906101000a900473ffffffffffffffffffffffffffffffffffffffff1673ffffffffffffffffffffffffffffffffffffffff166108fc479081150290604051600060405180830381858888f193505050501580156104e2573d6000803e3d6000fd5b50565b60035481565b600160009054906101000a900473ffffffffffffffffffffffffffffffffffffffff1681565b60025481565b60008082148061053f575082828385610530919061080b565b92508261053d9190610894565b145b61054857600080fd5b92915050565b600080fd5b6000819050919050565b61056681610553565b811461057157600080fd5b50565b6000813590506105838161055d565b92915050565b60006020828403121561059f5761059e61054e565b5b60006105ad84828501610574565b91505092915050565b6105bf81610553565b82525050565b60006020820190506105da60008301846105b6565b92915050565b600073ffffffffffffffffffffffffffffffffffffffff82169050919050565b6000819050919050565b600061062561062061061b846105e0565b610600565b6105e0565b9050919050565b60006106378261060a565b9050919050565b60006106498261062c565b9050919050565b6106598161063e565b82525050565b60006020820190506106746000830184610650565b92915050565b6000610685826105e0565b9050919050565b6106958161067a565b82525050565b60006020820190506106b0600083018461068c565b92915050565b6000815190506106c58161055d565b92915050565b6000602082840312156106e1576106e061054e565b5b60006106ef848285016106b6565b91505092915050565b600060408201905061070d600083018561068c565b61071a60208301846105b6565b9392505050565b60008115159050919050565b61073681610721565b811461074157600080fd5b50565b6000815190506107538161072d565b92915050565b60006020828403121561076f5761076e61054e565b5b600061077d84828501610744565b91505092915050565b7f4e487b7100000000000000000000000000000000000000000000000000000000600052601160045260246000fd5b60006107c082610553565b91506107cb83610553565b9250827fffffffffffffffffffffffffffffffffffffffffffffffffffffffffffffffff03821115610800576107ff610786565b5b828201905092915050565b600061081682610553565b915061082183610553565b9250817fffffffffffffffffffffffffffffffffffffffffffffffffffffffffffffffff048311821515161561085a57610859610786565b5b828202905092915050565b7f4e487b7100000000000000000000000000000000000000000000000000000000600052601260045260246000fd5b600061089f82610553565b91506108aa83610553565b9250826108ba576108b9610865565b5b82820490509291505056fea264697066735822122017e46cd6a101a0256f84eb9878ebe35622362ea1c78e9274fd393d9e65539d6d64736f6c634300080b0033",
  "immutableReferences": {},
  "source": "// SPDX-License-Identifier: MIT\nimport './LurryToken.sol';\n\npragma solidity ^0.8.0;\n\ncontract LurryTokenSale {\n  // keep track of admin w/ a state variable\n  // admin doesnt have public visibility -> dont expose address of admin \n  address admin; \n  LurryToken public tokenContract;\n  uint256 public tokenPrice;\n  uint256 public tokensSold;\n\n  // sell event \n  event Sell (address _buyer, uint256 _amount);\n\n\n  constructor(LurryToken _tokenContract, uint256 _tokenPrice) {\n    // assign an admin \n    // msg is a global variable in solidity that has a sender - add of person who called the f(x) \n    admin = msg.sender;\n    // token contract \n    tokenContract = _tokenContract;\n    // need to add token contract b/c we want to purchase tokens\n    // add reference to contract inside tokenSale contract w/ constructor\n    // token price \n    tokenPrice = _tokenPrice;\n\n  }\n\n  // multiply - takes two nums you want to multiply by and returns value\n  // internal - only inside the contract, cant be called externally\n  // pure - not reading or writing transactions, just a pure f(x)\n  function multiply(uint x, uint y) internal pure returns (uint z) {\n    require (y == 0 || (z = x * y) / y == x);\n  }\n\n\n  // buy tokens \n  // vis - public b/c want people to buy the tokens - call buyTokens f(x)\n  // payable - want someone to be able to send Eth via tx w/ this f(x)\n  // any f(x) in solidity that wants to send Eth = payable \n\n  // account can call this f(x) - pass in # of tokens they want, send the value w/ their wallet (client side)\n  function buyTokens(uint256 _numberOfTokens) public payable {\n\n      // require that value of token is equal to the token price \n      // msg.value - metadata we get when this f(x) is called - amt of wei this f(x) is sending\n      require(msg.value == multiply(_numberOfTokens, tokenPrice));\n\n      // require that there are enough tokens in the contract \n      // this refers to the address of the contract itself (tokenSaleContract)\n      require(tokenContract.balanceOf(address(this)) >= _numberOfTokens);\n\n      // require that a transfer is successful \n      // if doesn't happen - transaction will revert*\n      // buy functionality \n      require(tokenContract.transfer(msg.sender, _numberOfTokens));\n\n\n      // keeps track of number of tokensSold \n      tokensSold += _numberOfTokens;\n\n      // trigger sell event \n      // since f(x) is payable, buyer is act calling the f(x)\n      emit Sell(msg.sender, _numberOfTokens);\n  }\n\n\n  // Ending the token sale - only admin can do this\n  function endSale() public {\n    // require that only admin can end token sale\n  //   require(msg.sender == admin);\n\n  //   // transfer remaining LurryTokens to admin\n  //   require(tokenContract.transfer(admin, tokenContract.balanceOf(address(this))));\n\n  //   // destroy this contract \n  // selfdestruct(payable(admin));\n\n  require(msg.sender == admin);\n  require(tokenContract.transfer(admin, tokenContract.balanceOf(address(this))));\n\n  // transfer balance to admin -> don't destroy contract\n  // **tokens aren't being transferred to admin***\n  payable(admin).transfer(address(this).balance);\n  // selfdestruct(admin);\n\n    \n  }\n \n}\n",
  "sourcePath": "/Users/tobias/lurry-token-ico/contracts/LurryTokenSale.sol",
  "compiler": {
    "name": "solc",
    "version": "0.8.11+commit.d7f03943.Emscripten.clang"
  },
  "schemaVersion": "3.4.4",
  "updatedAt": "2022-01-23T21:55:15.988Z",
  "networkType": "ethereum",
  "devdoc": {
    "kind": "dev",
    "methods": {},
    "version": 1
  },
  "userdoc": {
    "kind": "user",
    "methods": {},
    "version": 1
  }
}