{
  "_format": "hh-sol-artifact-1",
  "contractName": "SecretLurrySociety",
  "sourceName": "contracts/SecretLurrySociety.sol",
  "abi": [
    {
      "inputs": [],
      "stateMutability": "nonpayable",
      "type": "constructor"
    },
    {
      "anonymous": false,
      "inputs": [
        {
          "indexed": true,
          "internalType": "address",
          "name": "owner",
          "type": "address"
        },
        {
          "indexed": true,
          "internalType": "address",
          "name": "approved",
          "type": "address"
        },
        {
          "indexed": true,
          "internalType": "uint256",
          "name": "tokenId",
          "type": "uint256"
        }
      ],
      "name": "Approval",
      "type": "event"
    },
    {
      "anonymous": false,
      "inputs": [
        {
          "indexed": true,
          "internalType": "address",
          "name": "owner",
          "type": "address"
        },
        {
          "indexed": true,
          "internalType": "address",
          "name": "operator",
          "type": "address"
        },
        {
          "indexed": false,
          "internalType": "bool",
          "name": "approved",
          "type": "bool"
        }
      ],
      "name": "ApprovalForAll",
      "type": "event"
    },
    {
      "anonymous": false,
      "inputs": [
        {
          "indexed": true,
          "internalType": "address",
          "name": "from",
          "type": "address"
        },
        {
          "indexed": true,
          "internalType": "address",
          "name": "to",
          "type": "address"
        },
        {
          "indexed": true,
          "internalType": "uint256",
          "name": "tokenId",
          "type": "uint256"
        }
      ],
      "name": "Transfer",
      "type": "event"
    },
    {
      "inputs": [
        {
          "internalType": "address",
          "name": "to",
          "type": "address"
        },
        {
          "internalType": "uint256",
          "name": "tokenId",
          "type": "uint256"
        }
      ],
      "name": "approve",
      "outputs": [],
      "stateMutability": "nonpayable",
      "type": "function"
    },
    {
      "inputs": [
        {
          "internalType": "address",
          "name": "owner",
          "type": "address"
        }
      ],
      "name": "balanceOf",
      "outputs": [
        {
          "internalType": "uint256",
          "name": "",
          "type": "uint256"
        }
      ],
      "stateMutability": "view",
      "type": "function"
    },
    {
      "inputs": [
        {
          "internalType": "uint256",
          "name": "tokenId",
          "type": "uint256"
        }
      ],
      "name": "getApproved",
      "outputs": [
        {
          "internalType": "address",
          "name": "",
          "type": "address"
        }
      ],
      "stateMutability": "view",
      "type": "function"
    },
    {
      "inputs": [
        {
          "internalType": "address",
          "name": "owner",
          "type": "address"
        },
        {
          "internalType": "address",
          "name": "operator",
          "type": "address"
        }
      ],
      "name": "isApprovedForAll",
      "outputs": [
        {
          "internalType": "bool",
          "name": "",
          "type": "bool"
        }
      ],
      "stateMutability": "view",
      "type": "function"
    },
    {
      "inputs": [],
      "name": "mintALurry",
      "outputs": [],
      "stateMutability": "nonpayable",
      "type": "function"
    },
    {
      "inputs": [],
      "name": "name",
      "outputs": [
        {
          "internalType": "string",
          "name": "",
          "type": "string"
        }
      ],
      "stateMutability": "view",
      "type": "function"
    },
    {
      "inputs": [
        {
          "internalType": "uint256",
          "name": "tokenId",
          "type": "uint256"
        }
      ],
      "name": "ownerOf",
      "outputs": [
        {
          "internalType": "address",
          "name": "",
          "type": "address"
        }
      ],
      "stateMutability": "view",
      "type": "function"
    },
    {
      "inputs": [
        {
          "internalType": "address",
          "name": "from",
          "type": "address"
        },
        {
          "internalType": "address",
          "name": "to",
          "type": "address"
        },
        {
          "internalType": "uint256",
          "name": "tokenId",
          "type": "uint256"
        }
      ],
      "name": "safeTransferFrom",
      "outputs": [],
      "stateMutability": "nonpayable",
      "type": "function"
    },
    {
      "inputs": [
        {
          "internalType": "address",
          "name": "from",
          "type": "address"
        },
        {
          "internalType": "address",
          "name": "to",
          "type": "address"
        },
        {
          "internalType": "uint256",
          "name": "tokenId",
          "type": "uint256"
        },
        {
          "internalType": "bytes",
          "name": "_data",
          "type": "bytes"
        }
      ],
      "name": "safeTransferFrom",
      "outputs": [],
      "stateMutability": "nonpayable",
      "type": "function"
    },
    {
      "inputs": [
        {
          "internalType": "address",
          "name": "operator",
          "type": "address"
        },
        {
          "internalType": "bool",
          "name": "approved",
          "type": "bool"
        }
      ],
      "name": "setApprovalForAll",
      "outputs": [],
      "stateMutability": "nonpayable",
      "type": "function"
    },
    {
      "inputs": [
        {
          "internalType": "bytes4",
          "name": "interfaceId",
          "type": "bytes4"
        }
      ],
      "name": "supportsInterface",
      "outputs": [
        {
          "internalType": "bool",
          "name": "",
          "type": "bool"
        }
      ],
      "stateMutability": "view",
      "type": "function"
    },
    {
      "inputs": [],
      "name": "symbol",
      "outputs": [
        {
          "internalType": "string",
          "name": "",
          "type": "string"
        }
      ],
      "stateMutability": "view",
      "type": "function"
    },
    {
      "inputs": [
        {
          "internalType": "uint256",
          "name": "tokenId",
          "type": "uint256"
        }
      ],
      "name": "tokenURI",
      "outputs": [
        {
          "internalType": "string",
          "name": "",
          "type": "string"
        }
      ],
      "stateMutability": "view",
      "type": "function"
    },
    {
      "inputs": [
        {
          "internalType": "address",
          "name": "from",
          "type": "address"
        },
        {
          "internalType": "address",
          "name": "to",
          "type": "address"
        },
        {
          "internalType": "uint256",
          "name": "tokenId",
          "type": "uint256"
        }
      ],
      "name": "transferFrom",
      "outputs": [],
      "stateMutability": "nonpayable",
      "type": "function"
    }
  ],
  "bytecode": "0x60806040523480156200001157600080fd5b506040518060400160405280600981526020017f4c55525259204e465400000000000000000000000000000000000000000000008152506040518060400160405280600581526020017f4c55525259000000000000000000000000000000000000000000000000000000815250816000908051906020019062000096929190620001cf565b508060019080519060200190620000af929190620001cf565b505050620000fd6040518060400160405280601e81526020017f54686973206973206d79204e465420636f6e74726163742e20576f61682100008152506200010360201b62000c8f1760201c565b620003ac565b620001a3816040516024016200011a9190620002c0565b6040516020818303038152906040527f41304fac000000000000000000000000000000000000000000000000000000007bffffffffffffffffffffffffffffffffffffffffffffffffffffffff19166020820180517bffffffffffffffffffffffffffffffffffffffffffffffffffffffff8381831617835250505050620001a660201b60201c565b50565b60008151905060006a636f6e736f6c652e6c6f679050602083016000808483855afa5050505050565b828054620001dd9062000336565b90600052602060002090601f0160209004810192826200020157600085556200024d565b82601f106200021c57805160ff19168380011785556200024d565b828001600101855582156200024d579182015b828111156200024c5782518255916020019190600101906200022f565b5b5090506200025c919062000260565b5090565b5b808211156200027b57600081600090555060010162000261565b5090565b60006200028c82620002e4565b620002988185620002ef565b9350620002aa81856020860162000300565b620002b5816200039b565b840191505092915050565b60006020820190508181036000830152620002dc81846200027f565b905092915050565b600081519050919050565b600082825260208201905092915050565b60005b838110156200032057808201518184015260208101905062000303565b8381111562000330576000848401525b50505050565b600060028204905060018216806200034f57607f821691505b602082108114156200036657620003656200036c565b5b50919050565b7f4e487b7100000000000000000000000000000000000000000000000000000000600052602260045260246000fd5b6000601f19601f8301169050919050565b61330a80620003bc6000396000f3fe608060405234801561001057600080fd5b50600436106100ea5760003560e01c806370a082311161008c578063b88d4fde11610066578063b88d4fde1461025b578063c87b56dd14610277578063de9d132f146102a7578063e985e9c5146102b1576100ea565b806370a08231146101f157806395d89b4114610221578063a22cb4651461023f576100ea565b8063095ea7b3116100c8578063095ea7b31461016d57806323b872dd1461018957806342842e0e146101a55780636352211e146101c1576100ea565b806301ffc9a7146100ef57806306fdde031461011f578063081812fc1461013d575b600080fd5b6101096004803603810190610104919061205c565b6102e1565b6040516101169190612b95565b60405180910390f35b6101276103c3565b6040516101349190612bb0565b60405180910390f35b610157600480360381019061015291906120ae565b610455565b6040516101649190612b2e565b60405180910390f35b61018760048036038101906101829190612020565b6104da565b005b6101a3600480360381019061019e9190611f1a565b6105f2565b005b6101bf60048036038101906101ba9190611f1a565b610652565b005b6101db60048036038101906101d691906120ae565b610672565b6040516101e89190612b2e565b60405180910390f35b61020b60048036038101906102069190611eb5565b610724565b6040516102189190612e10565b60405180910390f35b6102296107dc565b6040516102369190612bb0565b60405180910390f35b61025960048036038101906102549190611fe4565b61086e565b005b61027560048036038101906102709190611f69565b610884565b005b610291600480360381019061028c91906120ae565b6108e6565b60405161029e9190612bb0565b60405180910390f35b6102af610a38565b005b6102cb60048036038101906102c69190611ede565b610bfb565b6040516102d89190612b95565b60405180910390f35b60007f80ac58cd000000000000000000000000000000000000000000000000000000007bffffffffffffffffffffffffffffffffffffffffffffffffffffffff1916827bffffffffffffffffffffffffffffffffffffffffffffffffffffffff191614806103ac57507f5b5e139f000000000000000000000000000000000000000000000000000000007bffffffffffffffffffffffffffffffffffffffffffffffffffffffff1916827bffffffffffffffffffffffffffffffffffffffffffffffffffffffff1916145b806103bc57506103bb82610d28565b5b9050919050565b6060600080546103d29061309a565b80601f01602080910402602001604051908101604052809291908181526020018280546103fe9061309a565b801561044b5780601f106104205761010080835404028352916020019161044b565b820191906000526020600020905b81548152906001019060200180831161042e57829003601f168201915b5050505050905090565b600061046082610d92565b61049f576040517f08c379a000000000000000000000000000000000000000000000000000000000815260040161049690612d70565b60405180910390fd5b6004600083815260200190815260200160002060009054906101000a900473ffffffffffffffffffffffffffffffffffffffff169050919050565b60006104e582610672565b90508073ffffffffffffffffffffffffffffffffffffffff168373ffffffffffffffffffffffffffffffffffffffff161415610556576040517f08c379a000000000000000000000000000000000000000000000000000000000815260040161054d90612dd0565b60405180910390fd5b8073ffffffffffffffffffffffffffffffffffffffff16610575610dfe565b73ffffffffffffffffffffffffffffffffffffffff1614806105a457506105a38161059e610dfe565b610bfb565b5b6105e3576040517f08c379a00000000000000000000000000000000000000000000000000000000081526004016105da90612cb0565b60405180910390fd5b6105ed8383610e06565b505050565b6106036105fd610dfe565b82610ebf565b610642576040517f08c379a000000000000000000000000000000000000000000000000000000000815260040161063990612df0565b60405180910390fd5b61064d838383610f9d565b505050565b61066d83838360405180602001604052806000815250610884565b505050565b6000806002600084815260200190815260200160002060009054906101000a900473ffffffffffffffffffffffffffffffffffffffff169050600073ffffffffffffffffffffffffffffffffffffffff168173ffffffffffffffffffffffffffffffffffffffff16141561071b576040517f08c379a000000000000000000000000000000000000000000000000000000000815260040161071290612cf0565b60405180910390fd5b80915050919050565b60008073ffffffffffffffffffffffffffffffffffffffff168273ffffffffffffffffffffffffffffffffffffffff161415610795576040517f08c379a000000000000000000000000000000000000000000000000000000000815260040161078c90612cd0565b60405180910390fd5b600360008373ffffffffffffffffffffffffffffffffffffffff1673ffffffffffffffffffffffffffffffffffffffff168152602001908152602001600020549050919050565b6060600180546107eb9061309a565b80601f01602080910402602001604051908101604052809291908181526020018280546108179061309a565b80156108645780601f1061083957610100808354040283529160200191610864565b820191906000526020600020905b81548152906001019060200180831161084757829003601f168201915b5050505050905090565b610880610879610dfe565b83836111f9565b5050565b61089561088f610dfe565b83610ebf565b6108d4576040517f08c379a00000000000000000000000000000000000000000000000000000000081526004016108cb90612df0565b60405180910390fd5b6108e084848484611366565b50505050565b60606108f182610d92565b610930576040517f08c379a000000000000000000000000000000000000000000000000000000000815260040161092790612d50565b60405180910390fd5b60006006600084815260200190815260200160002080546109509061309a565b80601f016020809104026020016040519081016040528092919081815260200182805461097c9061309a565b80156109c95780601f1061099e576101008083540402835291602001916109c9565b820191906000526020600020905b8154815290600101906020018083116109ac57829003601f168201915b5050505050905060006109da6113c2565b90506000815114156109f0578192505050610a33565b600082511115610a25578082604051602001610a0d929190612aa9565b60405160208183030381529060405292505050610a33565b610a2e846113d9565b925050505b919050565b6000610a446007611480565b90506000610a6e604051602001610a5a90612af7565b60405160208183030381529060405261148e565b90506000610a98604051602001610a8490612ae2565b60405160208183030381529060405261148e565b90506000610ac2604051602001610aae90612acd565b60405160208183030381529060405261148e565b905060006040518060200160405280600081525090506000851415610ae957839050610b09565b6001851415610afa57829050610b08565b6002851415610b07578190505b5b5b600081604051602001610b1c9190612b0c565b6040516020818303038152906040529050610b6b6040518060400160405280601581526020017f0a2d2d2d2d2d2d2d2d2d2d2d2d2d2d2d2d2d2d2d2d0000000000000000000000815250610c8f565b610b7481610c8f565b610bb26040518060400160405280601581526020017f2d2d2d2d2d2d2d2d2d2d2d2d2d2d2d2d2d2d2d2d0a0000000000000000000000815250610c8f565b610bbc338761164c565b610bc6868261166a565b610bd060076116de565b610bf36040518060600160405280602581526020016132706025913987336116f4565b505050505050565b6000600560008473ffffffffffffffffffffffffffffffffffffffff1673ffffffffffffffffffffffffffffffffffffffff16815260200190815260200160002060008373ffffffffffffffffffffffffffffffffffffffff1673ffffffffffffffffffffffffffffffffffffffff16815260200190815260200160002060009054906101000a900460ff16905092915050565b610d2581604051602401610ca39190612bb0565b6040516020818303038152906040527f41304fac000000000000000000000000000000000000000000000000000000007bffffffffffffffffffffffffffffffffffffffffffffffffffffffff19166020820180517bffffffffffffffffffffffffffffffffffffffffffffffffffffffff8381831617835250505050611793565b50565b60007f01ffc9a7000000000000000000000000000000000000000000000000000000007bffffffffffffffffffffffffffffffffffffffffffffffffffffffff1916827bffffffffffffffffffffffffffffffffffffffffffffffffffffffff1916149050919050565b60008073ffffffffffffffffffffffffffffffffffffffff166002600084815260200190815260200160002060009054906101000a900473ffffffffffffffffffffffffffffffffffffffff1673ffffffffffffffffffffffffffffffffffffffff1614159050919050565b600033905090565b816004600083815260200190815260200160002060006101000a81548173ffffffffffffffffffffffffffffffffffffffff021916908373ffffffffffffffffffffffffffffffffffffffff160217905550808273ffffffffffffffffffffffffffffffffffffffff16610e7983610672565b73ffffffffffffffffffffffffffffffffffffffff167f8c5be1e5ebec7d5bd14f71427d1e84f3dd0314c0f7b2291e5b200ac8c7c3b92560405160405180910390a45050565b6000610eca82610d92565b610f09576040517f08c379a0000000000000000000000000000000000000000000000000000000008152600401610f0090612c90565b60405180910390fd5b6000610f1483610672565b90508073ffffffffffffffffffffffffffffffffffffffff168473ffffffffffffffffffffffffffffffffffffffff161480610f8357508373ffffffffffffffffffffffffffffffffffffffff16610f6b84610455565b73ffffffffffffffffffffffffffffffffffffffff16145b80610f945750610f938185610bfb565b5b91505092915050565b8273ffffffffffffffffffffffffffffffffffffffff16610fbd82610672565b73ffffffffffffffffffffffffffffffffffffffff1614611013576040517f08c379a000000000000000000000000000000000000000000000000000000000815260040161100a90612d90565b60405180910390fd5b600073ffffffffffffffffffffffffffffffffffffffff168273ffffffffffffffffffffffffffffffffffffffff161415611083576040517f08c379a000000000000000000000000000000000000000000000000000000000815260040161107a90612c50565b60405180910390fd5b61108e8383836117bc565b611099600082610e06565b6001600360008573ffffffffffffffffffffffffffffffffffffffff1673ffffffffffffffffffffffffffffffffffffffff16815260200190815260200160002060008282546110e99190612fb0565b925050819055506001600360008473ffffffffffffffffffffffffffffffffffffffff1673ffffffffffffffffffffffffffffffffffffffff16815260200190815260200160002060008282546111409190612ecf565b92505081905550816002600083815260200190815260200160002060006101000a81548173ffffffffffffffffffffffffffffffffffffffff021916908373ffffffffffffffffffffffffffffffffffffffff160217905550808273ffffffffffffffffffffffffffffffffffffffff168473ffffffffffffffffffffffffffffffffffffffff167fddf252ad1be2c89b69c2b068fc378daa952ba7f163c4a11628f55a4df523b3ef60405160405180910390a4505050565b8173ffffffffffffffffffffffffffffffffffffffff168373ffffffffffffffffffffffffffffffffffffffff161415611268576040517f08c379a000000000000000000000000000000000000000000000000000000000815260040161125f90612c70565b60405180910390fd5b80600560008573ffffffffffffffffffffffffffffffffffffffff1673ffffffffffffffffffffffffffffffffffffffff16815260200190815260200160002060008473ffffffffffffffffffffffffffffffffffffffff1673ffffffffffffffffffffffffffffffffffffffff16815260200190815260200160002060006101000a81548160ff0219169083151502179055508173ffffffffffffffffffffffffffffffffffffffff168373ffffffffffffffffffffffffffffffffffffffff167f17307eab39ab6107e8899845ad3d59bd9653f200f220920489ca2b5937696c31836040516113599190612b95565b60405180910390a3505050565b611371848484610f9d565b61137d848484846117c1565b6113bc576040517f08c379a00000000000000000000000000000000000000000000000000000000081526004016113b390612c10565b60405180910390fd5b50505050565b606060405180602001604052806000815250905090565b60606113e482610d92565b611423576040517f08c379a000000000000000000000000000000000000000000000000000000000815260040161141a90612db0565b60405180910390fd5b600061142d6113c2565b9050600081511161144d5760405180602001604052806000815250611478565b8061145784611958565b604051602001611468929190612aa9565b6040516020818303038152906040525b915050919050565b600081600001549050919050565b606060008251905060008114156114b75760405180602001604052806000815250915050611647565b600060036002836114c89190612ecf565b6114d29190612f25565b60046114de9190612f56565b905060006020826114ef9190612ecf565b67ffffffffffffffff81111561152e577f4e487b7100000000000000000000000000000000000000000000000000000000600052604160045260246000fd5b6040519080825280601f01601f1916602001820160405280156115605781602001600182028036833780820191505090505b5090506000604051806060016040528060408152602001613295604091399050600181016020830160005b868110156116045760038101905062ffffff818a015116603f8160121c168401518060081b905060ff603f83600c1c1686015116810190508060081b905060ff603f8360061c1686015116810190508060081b905060ff603f831686015116810190508060e01b9050808452600484019350505061158b565b50600386066001811461161e576002811461162e57611639565b613d3d60f01b6002830352611639565b603d60f81b60018303525b508484525050819450505050505b919050565b611666828260405180602001604052806000815250611b05565b5050565b61167382610d92565b6116b2576040517f08c379a00000000000000000000000000000000000000000000000000000000081526004016116a990612d10565b60405180910390fd5b806006600084815260200190815260200160002090805190602001906116d9929190611d41565b505050565b6001816000016000828254019250508190555050565b61178e83838360405160240161170c93929190612bd2565b6040516020818303038152906040527fe3849f79000000000000000000000000000000000000000000000000000000007bffffffffffffffffffffffffffffffffffffffffffffffffffffffff19166020820180517bffffffffffffffffffffffffffffffffffffffffffffffffffffffff8381831617835250505050611793565b505050565b60008151905060006a636f6e736f6c652e6c6f679050602083016000808483855afa5050505050565b505050565b60006117e28473ffffffffffffffffffffffffffffffffffffffff16611b60565b1561194b578373ffffffffffffffffffffffffffffffffffffffff1663150b7a0261180b610dfe565b8786866040518563ffffffff1660e01b815260040161182d9493929190612b49565b602060405180830381600087803b15801561184757600080fd5b505af192505050801561187857506040513d601f19601f820116820180604052508101906118759190612085565b60015b6118fb573d80600081146118a8576040519150601f19603f3d011682016040523d82523d6000602084013e6118ad565b606091505b506000815114156118f3576040517f08c379a00000000000000000000000000000000000000000000000000000000081526004016118ea90612c10565b60405180910390fd5b805181602001fd5b63150b7a0260e01b7bffffffffffffffffffffffffffffffffffffffffffffffffffffffff1916817bffffffffffffffffffffffffffffffffffffffffffffffffffffffff191614915050611950565b600190505b949350505050565b606060008214156119a0576040518060400160405280600181526020017f30000000000000000000000000000000000000000000000000000000000000008152509050611b00565b600082905060005b600082146119d25780806119bb906130cc565b915050600a826119cb9190612f25565b91506119a8565b60008167ffffffffffffffff811115611a14577f4e487b7100000000000000000000000000000000000000000000000000000000600052604160045260246000fd5b6040519080825280601f01601f191660200182016040528015611a465781602001600182028036833780820191505090505b5090505b60008514611af957600182611a5f9190612fb0565b9150600a85611a6e9190613115565b6030611a7a9190612ecf565b60f81b818381518110611ab6577f4e487b7100000000000000000000000000000000000000000000000000000000600052603260045260246000fd5b60200101907effffffffffffffffffffffffffffffffffffffffffffffffffffffffffffff1916908160001a905350600a85611af29190612f25565b9450611a4a565b8093505050505b919050565b611b0f8383611b73565b611b1c60008484846117c1565b611b5b576040517f08c379a0000000000000000000000000000000000000000000000000000000008152600401611b5290612c10565b60405180910390fd5b505050565b600080823b905060008111915050919050565b600073ffffffffffffffffffffffffffffffffffffffff168273ffffffffffffffffffffffffffffffffffffffff161415611be3576040517f08c379a0000000000000000000000000000000000000000000000000000000008152600401611bda90612d30565b60405180910390fd5b611bec81610d92565b15611c2c576040517f08c379a0000000000000000000000000000000000000000000000000000000008152600401611c2390612c30565b60405180910390fd5b611c38600083836117bc565b6001600360008473ffffffffffffffffffffffffffffffffffffffff1673ffffffffffffffffffffffffffffffffffffffff1681526020019081526020016000206000828254611c889190612ecf565b92505081905550816002600083815260200190815260200160002060006101000a81548173ffffffffffffffffffffffffffffffffffffffff021916908373ffffffffffffffffffffffffffffffffffffffff160217905550808273ffffffffffffffffffffffffffffffffffffffff16600073ffffffffffffffffffffffffffffffffffffffff167fddf252ad1be2c89b69c2b068fc378daa952ba7f163c4a11628f55a4df523b3ef60405160405180910390a45050565b828054611d4d9061309a565b90600052602060002090601f016020900481019282611d6f5760008555611db6565b82601f10611d8857805160ff1916838001178555611db6565b82800160010185558215611db6579182015b82811115611db5578251825591602001919060010190611d9a565b5b509050611dc39190611dc7565b5090565b5b80821115611de0576000816000905550600101611dc8565b5090565b6000611df7611df284612e5c565b612e2b565b905082815260208101848484011115611e0f57600080fd5b611e1a848285613058565b509392505050565b600081359050611e3181613213565b92915050565b600081359050611e468161322a565b92915050565b600081359050611e5b81613241565b92915050565b600081519050611e7081613241565b92915050565b600082601f830112611e8757600080fd5b8135611e97848260208601611de4565b91505092915050565b600081359050611eaf81613258565b92915050565b600060208284031215611ec757600080fd5b6000611ed584828501611e22565b91505092915050565b60008060408385031215611ef157600080fd5b6000611eff85828601611e22565b9250506020611f1085828601611e22565b9150509250929050565b600080600060608486031215611f2f57600080fd5b6000611f3d86828701611e22565b9350506020611f4e86828701611e22565b9250506040611f5f86828701611ea0565b9150509250925092565b60008060008060808587031215611f7f57600080fd5b6000611f8d87828801611e22565b9450506020611f9e87828801611e22565b9350506040611faf87828801611ea0565b925050606085013567ffffffffffffffff811115611fcc57600080fd5b611fd887828801611e76565b91505092959194509250565b60008060408385031215611ff757600080fd5b600061200585828601611e22565b925050602061201685828601611e37565b9150509250929050565b6000806040838503121561203357600080fd5b600061204185828601611e22565b925050602061205285828601611ea0565b9150509250929050565b60006020828403121561206e57600080fd5b600061207c84828501611e4c565b91505092915050565b60006020828403121561209757600080fd5b60006120a584828501611e61565b91505092915050565b6000602082840312156120c057600080fd5b60006120ce84828501611ea0565b91505092915050565b6120e081612fe4565b82525050565b6120ef81612ff6565b82525050565b600061210082612e8c565b61210a8185612ea2565b935061211a818560208601613067565b61212381613202565b840191505092915050565b600061213982612e97565b6121438185612eb3565b9350612153818560208601613067565b61215c81613202565b840191505092915050565b600061217282612e97565b61217c8185612ec4565b935061218c818560208601613067565b80840191505092915050565b60006121a560aa83612ec4565b91507f7b226e616d65223a2022437261796f6e204c75727279222c202264657363726960008301527f7074696f6e223a2022536f6d65626f6479206c65742068696d2067657420696e60208301527f746f2074686520626f78206f6620637261796f6e7320616761696e21222c202260408301527f696d616765223a2022697066733a2f2f516d56764c47394844336a477341587160608301527f4739506f797a6179386d597074446e7277474255366f59445a7a464458583f7060808301527f7265766965773d31227d0000000000000000000000000000000000000000000060a083015260aa82019050919050565b60006122a3603283612eb3565b91507f4552433732313a207472616e7366657220746f206e6f6e20455243373231526560008301527f63656976657220696d706c656d656e74657200000000000000000000000000006020830152604082019050919050565b6000612309601c83612eb3565b91507f4552433732313a20746f6b656e20616c7265616479206d696e746564000000006000830152602082019050919050565b600061234960a583612ec4565b91507f7b226e616d65223a202242696f68617a617264204c75727279222c202264657360008301527f6372697074696f6e223a202248652066656c6c20696e746f20736f6d6520726160208301527f64696f61637469766520776173746521204f68206e6f21222c2022696d61676560408301527f223a2022697066733a2f2f516d5a646151453369707566373235645557784d4b60608301527f5478434e757062744e3763373870346142716348624b4d38573f70726576696560808301527f773d31227d00000000000000000000000000000000000000000000000000000060a083015260a582019050919050565b6000612447602483612eb3565b91507f4552433732313a207472616e7366657220746f20746865207a65726f2061646460008301527f72657373000000000000000000000000000000000000000000000000000000006020830152604082019050919050565b60006124ad601983612eb3565b91507f4552433732313a20617070726f766520746f2063616c6c6572000000000000006000830152602082019050919050565b60006124ed602c83612eb3565b91507f4552433732313a206f70657261746f7220717565727920666f72206e6f6e657860008301527f697374656e7420746f6b656e00000000000000000000000000000000000000006020830152604082019050919050565b6000612553603883612eb3565b91507f4552433732313a20617070726f76652063616c6c6572206973206e6f74206f7760008301527f6e6572206e6f7220617070726f76656420666f7220616c6c00000000000000006020830152604082019050919050565b60006125b9602a83612eb3565b91507f4552433732313a2062616c616e636520717565727920666f7220746865207a6560008301527f726f2061646472657373000000000000000000000000000000000000000000006020830152604082019050919050565b600061261f602983612eb3565b91507f4552433732313a206f776e657220717565727920666f72206e6f6e657869737460008301527f656e7420746f6b656e00000000000000000000000000000000000000000000006020830152604082019050919050565b6000612685602e83612eb3565b91507f45524337323155524953746f726167653a2055524920736574206f66206e6f6e60008301527f6578697374656e7420746f6b656e0000000000000000000000000000000000006020830152604082019050919050565b60006126eb602083612eb3565b91507f4552433732313a206d696e7420746f20746865207a65726f20616464726573736000830152602082019050919050565b600061272b603183612eb3565b91507f45524337323155524953746f726167653a2055524920717565727920666f722060008301527f6e6f6e6578697374656e7420746f6b656e0000000000000000000000000000006020830152604082019050919050565b6000612791602c83612eb3565b91507f4552433732313a20617070726f76656420717565727920666f72206e6f6e657860008301527f697374656e7420746f6b656e00000000000000000000000000000000000000006020830152604082019050919050565b60006127f7602983612eb3565b91507f4552433732313a207472616e73666572206f6620746f6b656e2074686174206960008301527f73206e6f74206f776e00000000000000000000000000000000000000000000006020830152604082019050919050565b600061285d602f83612eb3565b91507f4552433732314d657461646174613a2055524920717565727920666f72206e6f60008301527f6e6578697374656e7420746f6b656e00000000000000000000000000000000006020830152604082019050919050565b60006128c3602183612eb3565b91507f4552433732313a20617070726f76616c20746f2063757272656e74206f776e6560008301527f72000000000000000000000000000000000000000000000000000000000000006020830152604082019050919050565b6000612929608c83612ec4565b91507f7b226e616d65223a20223344204d6f766965204c75727279222c20226465736360008301527f72697074696f6e223a20224865206c6f76657320746865206d6f76696573222c60208301527f2022696d616765223a2022697066733a2f2f516d5967326f707837324243316760408301527f724c6f734d423131444c6a43444441366e5a35426d54414a4853684a7662675060608301527f3f707265766965773d31227d00000000000000000000000000000000000000006080830152608c82019050919050565b6000612a01601d83612ec4565b91507f646174613a6170706c69636174696f6e2f6a736f6e3b6261736536342c0000006000830152601d82019050919050565b6000612a41603183612eb3565b91507f4552433732313a207472616e736665722063616c6c6572206973206e6f74206f60008301527f776e6572206e6f7220617070726f7665640000000000000000000000000000006020830152604082019050919050565b612aa38161304e565b82525050565b6000612ab58285612167565b9150612ac18284612167565b91508190509392505050565b6000612ad882612198565b9150819050919050565b6000612aed8261233c565b9150819050919050565b6000612b028261291c565b9150819050919050565b6000612b17826129f4565b9150612b238284612167565b915081905092915050565b6000602082019050612b4360008301846120d7565b92915050565b6000608082019050612b5e60008301876120d7565b612b6b60208301866120d7565b612b786040830185612a9a565b8181036060830152612b8a81846120f5565b905095945050505050565b6000602082019050612baa60008301846120e6565b92915050565b60006020820190508181036000830152612bca818461212e565b905092915050565b60006060820190508181036000830152612bec818661212e565b9050612bfb6020830185612a9a565b612c0860408301846120d7565b949350505050565b60006020820190508181036000830152612c2981612296565b9050919050565b60006020820190508181036000830152612c49816122fc565b9050919050565b60006020820190508181036000830152612c698161243a565b9050919050565b60006020820190508181036000830152612c89816124a0565b9050919050565b60006020820190508181036000830152612ca9816124e0565b9050919050565b60006020820190508181036000830152612cc981612546565b9050919050565b60006020820190508181036000830152612ce9816125ac565b9050919050565b60006020820190508181036000830152612d0981612612565b9050919050565b60006020820190508181036000830152612d2981612678565b9050919050565b60006020820190508181036000830152612d49816126de565b9050919050565b60006020820190508181036000830152612d698161271e565b9050919050565b60006020820190508181036000830152612d8981612784565b9050919050565b60006020820190508181036000830152612da9816127ea565b9050919050565b60006020820190508181036000830152612dc981612850565b9050919050565b60006020820190508181036000830152612de9816128b6565b9050919050565b60006020820190508181036000830152612e0981612a34565b9050919050565b6000602082019050612e256000830184612a9a565b92915050565b6000604051905081810181811067ffffffffffffffff82111715612e5257612e516131d3565b5b8060405250919050565b600067ffffffffffffffff821115612e7757612e766131d3565b5b601f19601f8301169050602081019050919050565b600081519050919050565b600081519050919050565b600082825260208201905092915050565b600082825260208201905092915050565b600081905092915050565b6000612eda8261304e565b9150612ee58361304e565b9250827fffffffffffffffffffffffffffffffffffffffffffffffffffffffffffffffff03821115612f1a57612f19613146565b5b828201905092915050565b6000612f308261304e565b9150612f3b8361304e565b925082612f4b57612f4a613175565b5b828204905092915050565b6000612f618261304e565b9150612f6c8361304e565b9250817fffffffffffffffffffffffffffffffffffffffffffffffffffffffffffffffff0483118215151615612fa557612fa4613146565b5b828202905092915050565b6000612fbb8261304e565b9150612fc68361304e565b925082821015612fd957612fd8613146565b5b828203905092915050565b6000612fef8261302e565b9050919050565b60008115159050919050565b60007fffffffff0000000000000000000000000000000000000000000000000000000082169050919050565b600073ffffffffffffffffffffffffffffffffffffffff82169050919050565b6000819050919050565b82818337600083830152505050565b60005b8381101561308557808201518184015260208101905061306a565b83811115613094576000848401525b50505050565b600060028204905060018216806130b257607f821691505b602082108114156130c6576130c56131a4565b5b50919050565b60006130d78261304e565b91507fffffffffffffffffffffffffffffffffffffffffffffffffffffffffffffffff82141561310a57613109613146565b5b600182019050919050565b60006131208261304e565b915061312b8361304e565b92508261313b5761313a613175565b5b828206905092915050565b7f4e487b7100000000000000000000000000000000000000000000000000000000600052601160045260246000fd5b7f4e487b7100000000000000000000000000000000000000000000000000000000600052601260045260246000fd5b7f4e487b7100000000000000000000000000000000000000000000000000000000600052602260045260246000fd5b7f4e487b7100000000000000000000000000000000000000000000000000000000600052604160045260246000fd5b6000601f19601f8301169050919050565b61321c81612fe4565b811461322757600080fd5b50565b61323381612ff6565b811461323e57600080fd5b50565b61324a81613002565b811461325557600080fd5b50565b6132618161304e565b811461326c57600080fd5b5056fe416e204e465420772f20494420257320686173206265656e206d696e74656420746f2025734142434445464748494a4b4c4d4e4f505152535455565758595a6162636465666768696a6b6c6d6e6f707172737475767778797a303132333435363738392b2fa2646970667358221220ef61a67be520545bb886cb8cc879daa301fc29b5b622c84c102f1e374514898f64736f6c63430008000033",
  "linkReferences": {},
  "deployedLinkReferences": {}
}