{
  "_format": "hh-sol-artifact-1",
  "contractName": "SecretLurrySociety",
  "sourceName": "contracts/SecretLurrySociety.sol",
  "abi": [
    {
      "inputs": [],
      "stateMutability": "nonpayable",
      "type": "constructor"
    },
    {
      "anonymous": false,
      "inputs": [
        {
          "indexed": true,
          "internalType": "address",
          "name": "owner",
          "type": "address"
        },
        {
          "indexed": true,
          "internalType": "address",
          "name": "approved",
          "type": "address"
        },
        {
          "indexed": true,
          "internalType": "uint256",
          "name": "tokenId",
          "type": "uint256"
        }
      ],
      "name": "Approval",
      "type": "event"
    },
    {
      "anonymous": false,
      "inputs": [
        {
          "indexed": true,
          "internalType": "address",
          "name": "owner",
          "type": "address"
        },
        {
          "indexed": true,
          "internalType": "address",
          "name": "operator",
          "type": "address"
        },
        {
          "indexed": false,
          "internalType": "bool",
          "name": "approved",
          "type": "bool"
        }
      ],
      "name": "ApprovalForAll",
      "type": "event"
    },
    {
      "anonymous": false,
      "inputs": [
        {
          "indexed": true,
          "internalType": "address",
          "name": "from",
          "type": "address"
        },
        {
          "indexed": true,
          "internalType": "address",
          "name": "to",
          "type": "address"
        },
        {
          "indexed": true,
          "internalType": "uint256",
          "name": "tokenId",
          "type": "uint256"
        }
      ],
      "name": "Transfer",
      "type": "event"
    },
    {
      "inputs": [
        {
          "internalType": "uint256",
          "name": "a",
          "type": "uint256"
        },
        {
          "internalType": "uint256",
          "name": "b",
          "type": "uint256"
        }
      ],
      "name": "add",
      "outputs": [
        {
          "internalType": "uint256",
          "name": "",
          "type": "uint256"
        }
      ],
      "stateMutability": "nonpayable",
      "type": "function"
    },
    {
      "inputs": [
        {
          "internalType": "address",
          "name": "to",
          "type": "address"
        },
        {
          "internalType": "uint256",
          "name": "tokenId",
          "type": "uint256"
        }
      ],
      "name": "approve",
      "outputs": [],
      "stateMutability": "nonpayable",
      "type": "function"
    },
    {
      "inputs": [
        {
          "internalType": "address",
          "name": "owner",
          "type": "address"
        }
      ],
      "name": "balanceOf",
      "outputs": [
        {
          "internalType": "uint256",
          "name": "",
          "type": "uint256"
        }
      ],
      "stateMutability": "view",
      "type": "function"
    },
    {
      "inputs": [
        {
          "internalType": "uint256",
          "name": "tokenId",
          "type": "uint256"
        }
      ],
      "name": "getApproved",
      "outputs": [
        {
          "internalType": "address",
          "name": "",
          "type": "address"
        }
      ],
      "stateMutability": "view",
      "type": "function"
    },
    {
      "inputs": [],
      "name": "getCurrentLurryId",
      "outputs": [
        {
          "internalType": "uint256",
          "name": "",
          "type": "uint256"
        }
      ],
      "stateMutability": "view",
      "type": "function"
    },
    {
      "inputs": [
        {
          "internalType": "address",
          "name": "owner",
          "type": "address"
        },
        {
          "internalType": "address",
          "name": "operator",
          "type": "address"
        }
      ],
      "name": "isApprovedForAll",
      "outputs": [
        {
          "internalType": "bool",
          "name": "",
          "type": "bool"
        }
      ],
      "stateMutability": "view",
      "type": "function"
    },
    {
      "inputs": [],
      "name": "mintALurry",
      "outputs": [],
      "stateMutability": "nonpayable",
      "type": "function"
    },
    {
      "inputs": [],
      "name": "name",
      "outputs": [
        {
          "internalType": "string",
          "name": "",
          "type": "string"
        }
      ],
      "stateMutability": "view",
      "type": "function"
    },
    {
      "inputs": [
        {
          "internalType": "uint256",
          "name": "tokenId",
          "type": "uint256"
        }
      ],
      "name": "ownerOf",
      "outputs": [
        {
          "internalType": "address",
          "name": "",
          "type": "address"
        }
      ],
      "stateMutability": "view",
      "type": "function"
    },
    {
      "inputs": [
        {
          "internalType": "address",
          "name": "from",
          "type": "address"
        },
        {
          "internalType": "address",
          "name": "to",
          "type": "address"
        },
        {
          "internalType": "uint256",
          "name": "tokenId",
          "type": "uint256"
        }
      ],
      "name": "safeTransferFrom",
      "outputs": [],
      "stateMutability": "nonpayable",
      "type": "function"
    },
    {
      "inputs": [
        {
          "internalType": "address",
          "name": "from",
          "type": "address"
        },
        {
          "internalType": "address",
          "name": "to",
          "type": "address"
        },
        {
          "internalType": "uint256",
          "name": "tokenId",
          "type": "uint256"
        },
        {
          "internalType": "bytes",
          "name": "_data",
          "type": "bytes"
        }
      ],
      "name": "safeTransferFrom",
      "outputs": [],
      "stateMutability": "nonpayable",
      "type": "function"
    },
    {
      "inputs": [
        {
          "internalType": "address",
          "name": "operator",
          "type": "address"
        },
        {
          "internalType": "bool",
          "name": "approved",
          "type": "bool"
        }
      ],
      "name": "setApprovalForAll",
      "outputs": [],
      "stateMutability": "nonpayable",
      "type": "function"
    },
    {
      "inputs": [
        {
          "internalType": "bytes4",
          "name": "interfaceId",
          "type": "bytes4"
        }
      ],
      "name": "supportsInterface",
      "outputs": [
        {
          "internalType": "bool",
          "name": "",
          "type": "bool"
        }
      ],
      "stateMutability": "view",
      "type": "function"
    },
    {
      "inputs": [],
      "name": "symbol",
      "outputs": [
        {
          "internalType": "string",
          "name": "",
          "type": "string"
        }
      ],
      "stateMutability": "view",
      "type": "function"
    },
    {
      "inputs": [
        {
          "internalType": "uint256",
          "name": "tokenId",
          "type": "uint256"
        }
      ],
      "name": "tokenURI",
      "outputs": [
        {
          "internalType": "string",
          "name": "",
          "type": "string"
        }
      ],
      "stateMutability": "view",
      "type": "function"
    },
    {
      "inputs": [
        {
          "internalType": "address",
          "name": "from",
          "type": "address"
        },
        {
          "internalType": "address",
          "name": "to",
          "type": "address"
        },
        {
          "internalType": "uint256",
          "name": "tokenId",
          "type": "uint256"
        }
      ],
      "name": "transferFrom",
      "outputs": [],
      "stateMutability": "nonpayable",
      "type": "function"
    }
  ],
  "bytecode": "0x60806040526200001b60076200011d60201b62000c651760201c565b6008553480156200002b57600080fd5b506040518060400160405280601481526020017f536563726574204c7572727920536f63696574790000000000000000000000008152506040518060400160405280600581526020017f4c555252590000000000000000000000000000000000000000000000000000008152508160009080519060200190620000b0929190620001f7565b508060019080519060200190620000c9929190620001f7565b505050620001176040518060400160405280601881526020017f54686973206973206d79204e465420636f6e74726163742e00000000000000008152506200012b60201b62000c731760201c565b620003d4565b600081600001549050919050565b620001cb81604051602401620001429190620002e8565b6040516020818303038152906040527f41304fac000000000000000000000000000000000000000000000000000000007bffffffffffffffffffffffffffffffffffffffffffffffffffffffff19166020820180517bffffffffffffffffffffffffffffffffffffffffffffffffffffffff8381831617835250505050620001ce60201b60201c565b50565b60008151905060006a636f6e736f6c652e6c6f679050602083016000808483855afa5050505050565b82805462000205906200035e565b90600052602060002090601f01602090048101928262000229576000855562000275565b82601f106200024457805160ff191683800117855562000275565b8280016001018555821562000275579182015b828111156200027457825182559160200191906001019062000257565b5b50905062000284919062000288565b5090565b5b80821115620002a357600081600090555060010162000289565b5090565b6000620002b4826200030c565b620002c0818562000317565b9350620002d281856020860162000328565b620002dd81620003c3565b840191505092915050565b60006020820190508181036000830152620003048184620002a7565b905092915050565b600081519050919050565b600082825260208201905092915050565b60005b83811015620003485780820151818401526020810190506200032b565b8381111562000358576000848401525b50505050565b600060028204905060018216806200037757607f821691505b602082108114156200038e576200038d62000394565b5b50919050565b7f4e487b7100000000000000000000000000000000000000000000000000000000600052602260045260246000fd5b6000601f19601f8301169050919050565b613f7e80620003e46000396000f3fe608060405234801561001057600080fd5b50600436106101005760003560e01c806370a0823111610097578063ab6c139911610066578063ab6c1399146102ab578063b88d4fde146102c9578063c87b56dd146102e5578063e985e9c51461031557610100565b806370a0823114610211578063771602f71461024157806395d89b4114610271578063a22cb4651461028f57610100565b80630bb13e71116100d35780630bb13e711461019f57806323b872dd146101a957806342842e0e146101c55780636352211e146101e157610100565b806301ffc9a71461010557806306fdde0314610135578063081812fc14610153578063095ea7b314610183575b600080fd5b61011f600480360381019061011a9190612381565b610345565b60405161012c9190613809565b60405180910390f35b61013d610427565b60405161014a9190613824565b60405180910390f35b61016d600480360381019061016891906123d3565b6104b9565b60405161017a91906137a2565b60405180910390f35b61019d60048036038101906101989190612345565b61053e565b005b6101a7610656565b005b6101c360048036038101906101be919061223f565b61076b565b005b6101df60048036038101906101da919061223f565b6107cb565b005b6101fb60048036038101906101f691906123d3565b6107eb565b60405161020891906137a2565b60405180910390f35b61022b600480360381019061022691906121da565b61089d565b6040516102389190613a84565b60405180910390f35b61025b600480360381019061025691906123fc565b610955565b6040516102689190613a84565b60405180910390f35b61027961096b565b6040516102869190613824565b60405180910390f35b6102a960048036038101906102a49190612309565b6109fd565b005b6102b3610a13565b6040516102c09190613a84565b60405180910390f35b6102e360048036038101906102de919061228e565b610a1d565b005b6102ff60048036038101906102fa91906123d3565b610a7f565b60405161030c9190613824565b60405180910390f35b61032f600480360381019061032a9190612203565b610bd1565b60405161033c9190613809565b60405180910390f35b60007f80ac58cd000000000000000000000000000000000000000000000000000000007bffffffffffffffffffffffffffffffffffffffffffffffffffffffff1916827bffffffffffffffffffffffffffffffffffffffffffffffffffffffff1916148061041057507f5b5e139f000000000000000000000000000000000000000000000000000000007bffffffffffffffffffffffffffffffffffffffffffffffffffffffff1916827bffffffffffffffffffffffffffffffffffffffffffffffffffffffff1916145b80610420575061041f82610d0c565b5b9050919050565b60606000805461043690613d0e565b80601f016020809104026020016040519081016040528092919081815260200182805461046290613d0e565b80156104af5780601f10610484576101008083540402835291602001916104af565b820191906000526020600020905b81548152906001019060200180831161049257829003601f168201915b5050505050905090565b60006104c482610d76565b610503576040517f08c379a00000000000000000000000000000000000000000000000000000000081526004016104fa906139e4565b60405180910390fd5b6004600083815260200190815260200160002060009054906101000a900473ffffffffffffffffffffffffffffffffffffffff169050919050565b6000610549826107eb565b90508073ffffffffffffffffffffffffffffffffffffffff168373ffffffffffffffffffffffffffffffffffffffff1614156105ba576040517f08c379a00000000000000000000000000000000000000000000000000000000081526004016105b190613a44565b60405180910390fd5b8073ffffffffffffffffffffffffffffffffffffffff166105d9610de2565b73ffffffffffffffffffffffffffffffffffffffff161480610608575061060781610602610de2565b610bd1565b5b610647576040517f08c379a000000000000000000000000000000000000000000000000000000000815260040161063e90613924565b60405180910390fd5b6106518383610dea565b505050565b6000610663600854610ea3565b9050600c60085411156106765750610769565b600081604051602001610689919061376b565b60405160208183030381529060405290506106d86040518060400160405280601581526020017f0a2d2d2d2d2d2d2d2d2d2d2d2d2d2d2d2d2d2d2d2d0000000000000000000000815250610c73565b6106e181610c73565b61071f6040518060400160405280601581526020017f2d2d2d2d2d2d2d2d2d2d2d2d2d2d2d2d2d2d2d2d0a0000000000000000000000815250610c73565b61072b336008546111f2565b61073760085482611210565b6107416007611284565b610766604051806060016040528060258152602001613ee4602591396008543361129a565b50505b565b61077c610776610de2565b82611339565b6107bb576040517f08c379a00000000000000000000000000000000000000000000000000000000081526004016107b290613a64565b60405180910390fd5b6107c6838383611417565b505050565b6107e683838360405180602001604052806000815250610a1d565b505050565b6000806002600084815260200190815260200160002060009054906101000a900473ffffffffffffffffffffffffffffffffffffffff169050600073ffffffffffffffffffffffffffffffffffffffff168173ffffffffffffffffffffffffffffffffffffffff161415610894576040517f08c379a000000000000000000000000000000000000000000000000000000000815260040161088b90613964565b60405180910390fd5b80915050919050565b60008073ffffffffffffffffffffffffffffffffffffffff168273ffffffffffffffffffffffffffffffffffffffff16141561090e576040517f08c379a000000000000000000000000000000000000000000000000000000000815260040161090590613944565b60405180910390fd5b600360008373ffffffffffffffffffffffffffffffffffffffff1673ffffffffffffffffffffffffffffffffffffffff168152602001908152602001600020549050919050565b600081836109639190613b43565b905092915050565b60606001805461097a90613d0e565b80601f01602080910402602001604051908101604052809291908181526020018280546109a690613d0e565b80156109f35780601f106109c8576101008083540402835291602001916109f3565b820191906000526020600020905b8154815290600101906020018083116109d657829003601f168201915b5050505050905090565b610a0f610a08610de2565b8383611673565b5050565b6000600854905090565b610a2e610a28610de2565b83611339565b610a6d576040517f08c379a0000000000000000000000000000000000000000000000000000000008152600401610a6490613a64565b60405180910390fd5b610a79848484846117e0565b50505050565b6060610a8a82610d76565b610ac9576040517f08c379a0000000000000000000000000000000000000000000000000000000008152600401610ac0906139c4565b60405180910390fd5b6000600660008481526020019081526020016000208054610ae990613d0e565b80601f0160208091040260200160405190810160405280929190818152602001828054610b1590613d0e565b8015610b625780601f10610b3757610100808354040283529160200191610b62565b820191906000526020600020905b815481529060010190602001808311610b4557829003601f168201915b505050505090506000610b7361183c565b9050600081511415610b89578192505050610bcc565b600082511115610bbe578082604051602001610ba6929190613660565b60405160208183030381529060405292505050610bcc565b610bc784611853565b925050505b919050565b6000600560008473ffffffffffffffffffffffffffffffffffffffff1673ffffffffffffffffffffffffffffffffffffffff16815260200190815260200160002060008373ffffffffffffffffffffffffffffffffffffffff1673ffffffffffffffffffffffffffffffffffffffff16815260200190815260200160002060009054906101000a900460ff16905092915050565b600081600001549050919050565b610d0981604051602401610c879190613824565b6040516020818303038152906040527f41304fac000000000000000000000000000000000000000000000000000000007bffffffffffffffffffffffffffffffffffffffffffffffffffffffff19166020820180517bffffffffffffffffffffffffffffffffffffffffffffffffffffffff83818316178352505050506118fa565b50565b60007f01ffc9a7000000000000000000000000000000000000000000000000000000007bffffffffffffffffffffffffffffffffffffffffffffffffffffffff1916827bffffffffffffffffffffffffffffffffffffffffffffffffffffffff1916149050919050565b60008073ffffffffffffffffffffffffffffffffffffffff166002600084815260200190815260200160002060009054906101000a900473ffffffffffffffffffffffffffffffffffffffff1673ffffffffffffffffffffffffffffffffffffffff1614159050919050565b600033905090565b816004600083815260200190815260200160002060006101000a81548173ffffffffffffffffffffffffffffffffffffffff021916908373ffffffffffffffffffffffffffffffffffffffff160217905550808273ffffffffffffffffffffffffffffffffffffffff16610e5d836107eb565b73ffffffffffffffffffffffffffffffffffffffff167f8c5be1e5ebec7d5bd14f71427d1e84f3dd0314c0f7b2291e5b200ac8c7c3b92560405160405180910390a45050565b60606000610ecd604051602001610eb990613756565b604051602081830303815290604052611923565b90506000610ef7604051602001610ee3906136d8565b604051602081830303815290604052611923565b90506000610f21604051602001610f0d906136ae565b604051602081830303815290604052611923565b90506000610f4b604051602001610f3790613702565b604051602081830303815290604052611923565b90506000610f75604051602001610f61906136c3565b604051602081830303815290604052611923565b90506000610f9f604051602001610f8b906136ed565b604051602081830303815290604052611923565b90506000610fc9604051602001610fb590613717565b604051602081830303815290604052611923565b90506000610ff3604051602001610fdf9061378d565b604051602081830303815290604052611923565b9050600061101d60405160200161100990613699565b604051602081830303815290604052611923565b9050600061104760405160200161103390613684565b604051602081830303815290604052611923565b9050600061107160405160200161105d9061372c565b604051602081830303815290604052611923565b9050600061109b60405160200161108790613741565b604051602081830303815290604052611923565b9050600060405180602001604052806000815250905060008f14156110c2578c90506111dc565b60018f14156110d3578b90506111db565b60028f14156110e4578a90506111da565b60038f14156110f5578990506111d9565b60048f1415611106578890506111d8565b60058f1415611117578790506111d7565b60068f1415611128578690506111d6565b60078f1415611139578590506111d5565b60088f141561114a578490506111d4565b60098f141561115b578390506111d3565b600a8f141561116c578290506111d2565b600b8f141561117d578190506111d1565b600b8f11156111d0576040518060400160405280600581526020017f66616c73650000000000000000000000000000000000000000000000000000008152509d50505050505050505050505050506111ed565b5b5b5b5b5b5b5b5b5b5b5b5b809d50505050505050505050505050505b919050565b61120c828260405180602001604052806000815250611ae1565b5050565b61121982610d76565b611258576040517f08c379a000000000000000000000000000000000000000000000000000000000815260040161124f90613984565b60405180910390fd5b8060066000848152602001908152602001600020908051906020019061127f929190612066565b505050565b6001816000016000828254019250508190555050565b6113348383836040516024016112b293929190613846565b6040516020818303038152906040527fe3849f79000000000000000000000000000000000000000000000000000000007bffffffffffffffffffffffffffffffffffffffffffffffffffffffff19166020820180517bffffffffffffffffffffffffffffffffffffffffffffffffffffffff83818316178352505050506118fa565b505050565b600061134482610d76565b611383576040517f08c379a000000000000000000000000000000000000000000000000000000000815260040161137a90613904565b60405180910390fd5b600061138e836107eb565b90508073ffffffffffffffffffffffffffffffffffffffff168473ffffffffffffffffffffffffffffffffffffffff1614806113fd57508373ffffffffffffffffffffffffffffffffffffffff166113e5846104b9565b73ffffffffffffffffffffffffffffffffffffffff16145b8061140e575061140d8185610bd1565b5b91505092915050565b8273ffffffffffffffffffffffffffffffffffffffff16611437826107eb565b73ffffffffffffffffffffffffffffffffffffffff161461148d576040517f08c379a000000000000000000000000000000000000000000000000000000000815260040161148490613a04565b60405180910390fd5b600073ffffffffffffffffffffffffffffffffffffffff168273ffffffffffffffffffffffffffffffffffffffff1614156114fd576040517f08c379a00000000000000000000000000000000000000000000000000000000081526004016114f4906138c4565b60405180910390fd5b611508838383611b3c565b611513600082610dea565b6001600360008573ffffffffffffffffffffffffffffffffffffffff1673ffffffffffffffffffffffffffffffffffffffff16815260200190815260200160002060008282546115639190613c24565b925050819055506001600360008473ffffffffffffffffffffffffffffffffffffffff1673ffffffffffffffffffffffffffffffffffffffff16815260200190815260200160002060008282546115ba9190613b43565b92505081905550816002600083815260200190815260200160002060006101000a81548173ffffffffffffffffffffffffffffffffffffffff021916908373ffffffffffffffffffffffffffffffffffffffff160217905550808273ffffffffffffffffffffffffffffffffffffffff168473ffffffffffffffffffffffffffffffffffffffff167fddf252ad1be2c89b69c2b068fc378daa952ba7f163c4a11628f55a4df523b3ef60405160405180910390a4505050565b8173ffffffffffffffffffffffffffffffffffffffff168373ffffffffffffffffffffffffffffffffffffffff1614156116e2576040517f08c379a00000000000000000000000000000000000000000000000000000000081526004016116d9906138e4565b60405180910390fd5b80600560008573ffffffffffffffffffffffffffffffffffffffff1673ffffffffffffffffffffffffffffffffffffffff16815260200190815260200160002060008473ffffffffffffffffffffffffffffffffffffffff1673ffffffffffffffffffffffffffffffffffffffff16815260200190815260200160002060006101000a81548160ff0219169083151502179055508173ffffffffffffffffffffffffffffffffffffffff168373ffffffffffffffffffffffffffffffffffffffff167f17307eab39ab6107e8899845ad3d59bd9653f200f220920489ca2b5937696c31836040516117d39190613809565b60405180910390a3505050565b6117eb848484611417565b6117f784848484611b41565b611836576040517f08c379a000000000000000000000000000000000000000000000000000000000815260040161182d90613884565b60405180910390fd5b50505050565b606060405180602001604052806000815250905090565b606061185e82610d76565b61189d576040517f08c379a000000000000000000000000000000000000000000000000000000000815260040161189490613a24565b60405180910390fd5b60006118a761183c565b905060008151116118c757604051806020016040528060008152506118f2565b806118d184611cd8565b6040516020016118e2929190613660565b6040516020818303038152906040525b915050919050565b60008151905060006a636f6e736f6c652e6c6f679050602083016000808483855afa5050505050565b6060600082519050600081141561194c5760405180602001604052806000815250915050611adc565b6000600360028361195d9190613b43565b6119679190613b99565b60046119739190613bca565b905060006020826119849190613b43565b67ffffffffffffffff8111156119c3577f4e487b7100000000000000000000000000000000000000000000000000000000600052604160045260246000fd5b6040519080825280601f01601f1916602001820160405280156119f55781602001600182028036833780820191505090505b5090506000604051806060016040528060408152602001613f09604091399050600181016020830160005b86811015611a995760038101905062ffffff818a015116603f8160121c168401518060081b905060ff603f83600c1c1686015116810190508060081b905060ff603f8360061c1686015116810190508060081b905060ff603f831686015116810190508060e01b90508084526004840193505050611a20565b506003860660018114611ab35760028114611ac357611ace565b613d3d60f01b6002830352611ace565b603d60f81b60018303525b508484525050819450505050505b919050565b611aeb8383611e85565b611af86000848484611b41565b611b37576040517f08c379a0000000000000000000000000000000000000000000000000000000008152600401611b2e90613884565b60405180910390fd5b505050565b505050565b6000611b628473ffffffffffffffffffffffffffffffffffffffff16612053565b15611ccb578373ffffffffffffffffffffffffffffffffffffffff1663150b7a02611b8b610de2565b8786866040518563ffffffff1660e01b8152600401611bad94939291906137bd565b602060405180830381600087803b158015611bc757600080fd5b505af1925050508015611bf857506040513d601f19601f82011682018060405250810190611bf591906123aa565b60015b611c7b573d8060008114611c28576040519150601f19603f3d011682016040523d82523d6000602084013e611c2d565b606091505b50600081511415611c73576040517f08c379a0000000000000000000000000000000000000000000000000000000008152600401611c6a90613884565b60405180910390fd5b805181602001fd5b63150b7a0260e01b7bffffffffffffffffffffffffffffffffffffffffffffffffffffffff1916817bffffffffffffffffffffffffffffffffffffffffffffffffffffffff191614915050611cd0565b600190505b949350505050565b60606000821415611d20576040518060400160405280600181526020017f30000000000000000000000000000000000000000000000000000000000000008152509050611e80565b600082905060005b60008214611d52578080611d3b90613d40565b915050600a82611d4b9190613b99565b9150611d28565b60008167ffffffffffffffff811115611d94577f4e487b7100000000000000000000000000000000000000000000000000000000600052604160045260246000fd5b6040519080825280601f01601f191660200182016040528015611dc65781602001600182028036833780820191505090505b5090505b60008514611e7957600182611ddf9190613c24565b9150600a85611dee9190613d89565b6030611dfa9190613b43565b60f81b818381518110611e36577f4e487b7100000000000000000000000000000000000000000000000000000000600052603260045260246000fd5b60200101907effffffffffffffffffffffffffffffffffffffffffffffffffffffffffffff1916908160001a905350600a85611e729190613b99565b9450611dca565b8093505050505b919050565b600073ffffffffffffffffffffffffffffffffffffffff168273ffffffffffffffffffffffffffffffffffffffff161415611ef5576040517f08c379a0000000000000000000000000000000000000000000000000000000008152600401611eec906139a4565b60405180910390fd5b611efe81610d76565b15611f3e576040517f08c379a0000000000000000000000000000000000000000000000000000000008152600401611f35906138a4565b60405180910390fd5b611f4a60008383611b3c565b6001600360008473ffffffffffffffffffffffffffffffffffffffff1673ffffffffffffffffffffffffffffffffffffffff1681526020019081526020016000206000828254611f9a9190613b43565b92505081905550816002600083815260200190815260200160002060006101000a81548173ffffffffffffffffffffffffffffffffffffffff021916908373ffffffffffffffffffffffffffffffffffffffff160217905550808273ffffffffffffffffffffffffffffffffffffffff16600073ffffffffffffffffffffffffffffffffffffffff167fddf252ad1be2c89b69c2b068fc378daa952ba7f163c4a11628f55a4df523b3ef60405160405180910390a45050565b600080823b905060008111915050919050565b82805461207290613d0e565b90600052602060002090601f01602090048101928261209457600085556120db565b82601f106120ad57805160ff19168380011785556120db565b828001600101855582156120db579182015b828111156120da5782518255916020019190600101906120bf565b5b5090506120e891906120ec565b5090565b5b808211156121055760008160009055506001016120ed565b5090565b600061211c61211784613ad0565b613a9f565b90508281526020810184848401111561213457600080fd5b61213f848285613ccc565b509392505050565b60008135905061215681613e87565b92915050565b60008135905061216b81613e9e565b92915050565b60008135905061218081613eb5565b92915050565b60008151905061219581613eb5565b92915050565b600082601f8301126121ac57600080fd5b81356121bc848260208601612109565b91505092915050565b6000813590506121d481613ecc565b92915050565b6000602082840312156121ec57600080fd5b60006121fa84828501612147565b91505092915050565b6000806040838503121561221657600080fd5b600061222485828601612147565b925050602061223585828601612147565b9150509250929050565b60008060006060848603121561225457600080fd5b600061226286828701612147565b935050602061227386828701612147565b9250506040612284868287016121c5565b9150509250925092565b600080600080608085870312156122a457600080fd5b60006122b287828801612147565b94505060206122c387828801612147565b93505060406122d4878288016121c5565b925050606085013567ffffffffffffffff8111156122f157600080fd5b6122fd8782880161219b565b91505092959194509250565b6000806040838503121561231c57600080fd5b600061232a85828601612147565b925050602061233b8582860161215c565b9150509250929050565b6000806040838503121561235857600080fd5b600061236685828601612147565b9250506020612377858286016121c5565b9150509250929050565b60006020828403121561239357600080fd5b60006123a184828501612171565b91505092915050565b6000602082840312156123bc57600080fd5b60006123ca84828501612186565b91505092915050565b6000602082840312156123e557600080fd5b60006123f3848285016121c5565b91505092915050565b6000806040838503121561240f57600080fd5b600061241d858286016121c5565b925050602061242e858286016121c5565b9150509250929050565b61244181613c58565b82525050565b61245081613c6a565b82525050565b600061246182613b00565b61246b8185613b16565b935061247b818560208601613cdb565b61248481613e76565b840191505092915050565b600061249a82613b0b565b6124a48185613b27565b93506124b4818560208601613cdb565b6124bd81613e76565b840191505092915050565b60006124d382613b0b565b6124dd8185613b38565b93506124ed818560208601613cdb565b80840191505092915050565b6000612506608d83613b38565b91507f7b226e616d65223a202253747261776275727279204c75727279222c2022646560008301527f736372697074696f6e223a20224865206973206265727279207377656574212260208301527f2c2022696d616765223a2022697066733a2f2f516d58665078657358466d446360408301527f76364a65506652794e4843704a744a783143796b5778567673366b3444656d7860608301527f343f707265766965773d31227d000000000000000000000000000000000000006080830152608d82019050919050565b60006125de60b383613b38565b91507f7b226e616d65223a20225361696c6f72204c75727279222c202264657363726960008301527f7074696f6e223a2022596f75206b6e6f7720776861742074686579207361792c60208301527f2050696e6b204c75727279206174206e696768742c207361696c6f727320646560408301527f6c69676874222c2022696d616765223a2022697066733a2f2f516d546f587a6e60608301527f443639474c6d4d3968775a4a527750594b534644474e4b5252636d4d62417a6660808301527f7a5a77366b736d3f707265766965773d31227d0000000000000000000000000060a083015260b382019050919050565b60006126dc60aa83613b38565b91507f7b226e616d65223a2022437261796f6e204c75727279222c202264657363726960008301527f7074696f6e223a2022536f6d65626f6479206c65742068696d2067657420696e60208301527f746f2074686520626f78206f6620637261796f6e7320616761696e21222c202260408301527f696d616765223a2022697066733a2f2f516d56764c47394844336a477341587160608301527f4739506f797a6179386d597074446e7277474255366f59445a7a464458583f7060808301527f7265766965773d31227d0000000000000000000000000000000000000000000060a083015260aa82019050919050565b60006127da60b383613b38565b91507f7b226e616d65223a202253756e6275726e204c75727279222c2022646573637260008301527f697074696f6e223a20225468697320697320776861742068617070656e73207760208301527f68656e20796f7520666f72676574207468652073756e73637265656e204c757260408301527f72792e2e2e222c2022696d616765223a2022697066733a2f2f516d62356d654460608301527f6532434b696635534a42627a6478363542375744637a6376595652386178787160808301527f75614a6d686e5a3f707265766965773d31227d0000000000000000000000000060a083015260b382019050919050565b60006128d8603283613b27565b91507f4552433732313a207472616e7366657220746f206e6f6e20455243373231526560008301527f63656976657220696d706c656d656e74657200000000000000000000000000006020830152604082019050919050565b600061293e601c83613b27565b91507f4552433732313a20746f6b656e20616c7265616479206d696e746564000000006000830152602082019050919050565b600061297e60a583613b38565b91507f7b226e616d65223a202242696f68617a617264204c75727279222c202264657360008301527f6372697074696f6e223a202248652066656c6c20696e746f20736f6d6520726160208301527f64696f61637469766520776173746521204f68206e6f21222c2022696d61676560408301527f223a2022697066733a2f2f516d5a646151453369707566373235645557784d4b60608301527f5478434e757062744e3763373870346142716348624b4d38573f70726576696560808301527f773d31227d00000000000000000000000000000000000000000000000000000060a083015260a582019050919050565b6000612a7c602483613b27565b91507f4552433732313a207472616e7366657220746f20746865207a65726f2061646460008301527f72657373000000000000000000000000000000000000000000000000000000006020830152604082019050919050565b6000612ae2601983613b27565b91507f4552433732313a20617070726f766520746f2063616c6c6572000000000000006000830152602082019050919050565b6000612b22602c83613b27565b91507f4552433732313a206f70657261746f7220717565727920666f72206e6f6e657860008301527f697374656e7420746f6b656e00000000000000000000000000000000000000006020830152604082019050919050565b6000612b8860a983613b38565b91507f7b226e616d65223a202247656e746c656d616e204c75727279222c202264657360008301527f6372697074696f6e223a2022486520697320612064697374696e67756973686560208301527f642067656e746c656d616e2c20616e642061207363686f6c61722e222c20226960408301527f6d616765223a2022697066733a2f2f516d64344c33523743486b5376797a4c6d60608301527f4344617476746d5764503268625638667641476d31445744546d52726a3f707260808301527f65766965773d31227d000000000000000000000000000000000000000000000060a083015260a982019050919050565b6000612c86609c83613b38565b91507f7b226e616d65223a202246726f7a656e204c75727279222c202264657363726960008301527f7074696f6e223a2022446f20796f752077616e7420746f206275696c6420612060208301527f4c7575757572727272797979793f222c2022696d616765223a2022697066733a60408301527f2f2f516d4e726856456b47776f42734a38747a63676b743754455361354b344560608301527f61744b44753556343742776a314b33673f707265766965773d31227d000000006080830152609c82019050919050565b6000612d5e609783613b38565b91507f7b226e616d65223a20224f47204c75727279222c20226465736372697074696f60008301527f6e223a202257696c6c20746865207265616c204c7572727920706c656173652060208301527f7374616e642075702e222c2022696d616765223a2022697066733a2f2f516d6260408301527f515a6f3855367a396f7159753734675665534348665a44705a4b54627655563860608301527f715770593377444c6d41693f707265766965773d31227d0000000000000000006080830152609782019050919050565b6000612e36603883613b27565b91507f4552433732313a20617070726f76652063616c6c6572206973206e6f74206f7760008301527f6e6572206e6f7220617070726f76656420666f7220616c6c00000000000000006020830152604082019050919050565b6000612e9c602a83613b27565b91507f4552433732313a2062616c616e636520717565727920666f7220746865207a6560008301527f726f2061646472657373000000000000000000000000000000000000000000006020830152604082019050919050565b6000612f02602983613b27565b91507f4552433732313a206f776e657220717565727920666f72206e6f6e657869737460008301527f656e7420746f6b656e00000000000000000000000000000000000000000000006020830152604082019050919050565b6000612f68602e83613b27565b91507f45524337323155524953746f726167653a2055524920736574206f66206e6f6e60008301527f6578697374656e7420746f6b656e0000000000000000000000000000000000006020830152604082019050919050565b6000612fce609b83613b38565b91507f7b226e616d65223a2022556e6465727761746572204c75727279222c2022646560008301527f736372697074696f6e223a20224c75727279206c6f76657320646976696e672060208301527f666f7220747265617375726521222c2022696d616765223a2022697066733a2f60408301527f2f516d5073795a65536b357444486d54484a476a424b36746e756d6d63594e5760608301527f3472314c5263344e366f723143614d3f707265766965773d31227d00000000006080830152609b82019050919050565b60006130a6602083613b27565b91507f4552433732313a206d696e7420746f20746865207a65726f20616464726573736000830152602082019050919050565b60006130e6603183613b27565b91507f45524337323155524953746f726167653a2055524920717565727920666f722060008301527f6e6f6e6578697374656e7420746f6b656e0000000000000000000000000000006020830152604082019050919050565b600061314c602c83613b27565b91507f4552433732313a20617070726f76656420717565727920666f72206e6f6e657860008301527f697374656e7420746f6b656e00000000000000000000000000000000000000006020830152604082019050919050565b60006131b260a683613b38565b91507f7b226e616d65223a202257617465726d656c6f6e204c75727279222c2022646560008301527f736372697074696f6e223a2022546173746573206c696b652077617465726d6560208301527f6c6f6e2c206f6e20612073756d6d6572206576656e696e67222c2022696d616760408301527f65223a2022697066733a2f2f516d6335614667697177324e41585a5644597a4460608301527f5751734b386673795445416866444479614273633869414a48663f707265766960808301527f65773d31227d000000000000000000000000000000000000000000000000000060a083015260a682019050919050565b60006132b0602983613b27565b91507f4552433732313a207472616e73666572206f6620746f6b656e2074686174206960008301527f73206e6f74206f776e00000000000000000000000000000000000000000000006020830152604082019050919050565b6000613316602f83613b27565b91507f4552433732314d657461646174613a2055524920717565727920666f72206e6f60008301527f6e6578697374656e7420746f6b656e00000000000000000000000000000000006020830152604082019050919050565b600061337c602183613b27565b91507f4552433732313a20617070726f76616c20746f2063757272656e74206f776e6560008301527f72000000000000000000000000000000000000000000000000000000000000006020830152604082019050919050565b60006133e2608c83613b38565b91507f7b226e616d65223a20223344204d6f766965204c75727279222c20226465736360008301527f72697074696f6e223a20224865206c6f76657320746865206d6f76696573222c60208301527f2022696d616765223a2022697066733a2f2f516d5967326f707837324243316760408301527f724c6f734d423131444c6a43444441366e5a35426d54414a4853684a7662675060608301527f3f707265766965773d31227d00000000000000000000000000000000000000006080830152608c82019050919050565b60006134ba601d83613b38565b91507f646174613a6170706c69636174696f6e2f6a736f6e3b6261736536342c0000006000830152601d82019050919050565b60006134fa603183613b27565b91507f4552433732313a207472616e736665722063616c6c6572206973206e6f74206f60008301527f776e6572206e6f7220617070726f7665640000000000000000000000000000006020830152604082019050919050565b600061356060af83613b38565b91507f7b226e616d65223a20224469677569736564204c75727279222c20226465736360008301527f72697074696f6e223a202253686868682e2e2e20686520697320696e2064697360208301527f67756973652120547279206e6f7420746f20626c6f772068697320636f76657260408301527f2e222c2022696d616765223a2022697066733a2f2f516d51386e63413239317360608301527f785558584634536e45624153776438553451504441644354584a58775978365a60808301527f4b51773f707265766965773d31227d000000000000000000000000000000000060a083015260af82019050919050565b61365a81613cc2565b82525050565b600061366c82856124c8565b915061367882846124c8565b91508190509392505050565b600061368f826124f9565b9150819050919050565b60006136a4826125d1565b9150819050919050565b60006136b9826126cf565b9150819050919050565b60006136ce826127cd565b9150819050919050565b60006136e382612971565b9150819050919050565b60006136f882612b7b565b9150819050919050565b600061370d82612c79565b9150819050919050565b600061372282612d51565b9150819050919050565b600061373782612fc1565b9150819050919050565b600061374c826131a5565b9150819050919050565b6000613761826133d5565b9150819050919050565b6000613776826134ad565b915061378282846124c8565b915081905092915050565b600061379882613553565b9150819050919050565b60006020820190506137b76000830184612438565b92915050565b60006080820190506137d26000830187612438565b6137df6020830186612438565b6137ec6040830185613651565b81810360608301526137fe8184612456565b905095945050505050565b600060208201905061381e6000830184612447565b92915050565b6000602082019050818103600083015261383e818461248f565b905092915050565b60006060820190508181036000830152613860818661248f565b905061386f6020830185613651565b61387c6040830184612438565b949350505050565b6000602082019050818103600083015261389d816128cb565b9050919050565b600060208201905081810360008301526138bd81612931565b9050919050565b600060208201905081810360008301526138dd81612a6f565b9050919050565b600060208201905081810360008301526138fd81612ad5565b9050919050565b6000602082019050818103600083015261391d81612b15565b9050919050565b6000602082019050818103600083015261393d81612e29565b9050919050565b6000602082019050818103600083015261395d81612e8f565b9050919050565b6000602082019050818103600083015261397d81612ef5565b9050919050565b6000602082019050818103600083015261399d81612f5b565b9050919050565b600060208201905081810360008301526139bd81613099565b9050919050565b600060208201905081810360008301526139dd816130d9565b9050919050565b600060208201905081810360008301526139fd8161313f565b9050919050565b60006020820190508181036000830152613a1d816132a3565b9050919050565b60006020820190508181036000830152613a3d81613309565b9050919050565b60006020820190508181036000830152613a5d8161336f565b9050919050565b60006020820190508181036000830152613a7d816134ed565b9050919050565b6000602082019050613a996000830184613651565b92915050565b6000604051905081810181811067ffffffffffffffff82111715613ac657613ac5613e47565b5b8060405250919050565b600067ffffffffffffffff821115613aeb57613aea613e47565b5b601f19601f8301169050602081019050919050565b600081519050919050565b600081519050919050565b600082825260208201905092915050565b600082825260208201905092915050565b600081905092915050565b6000613b4e82613cc2565b9150613b5983613cc2565b9250827fffffffffffffffffffffffffffffffffffffffffffffffffffffffffffffffff03821115613b8e57613b8d613dba565b5b828201905092915050565b6000613ba482613cc2565b9150613baf83613cc2565b925082613bbf57613bbe613de9565b5b828204905092915050565b6000613bd582613cc2565b9150613be083613cc2565b9250817fffffffffffffffffffffffffffffffffffffffffffffffffffffffffffffffff0483118215151615613c1957613c18613dba565b5b828202905092915050565b6000613c2f82613cc2565b9150613c3a83613cc2565b925082821015613c4d57613c4c613dba565b5b828203905092915050565b6000613c6382613ca2565b9050919050565b60008115159050919050565b60007fffffffff0000000000000000000000000000000000000000000000000000000082169050919050565b600073ffffffffffffffffffffffffffffffffffffffff82169050919050565b6000819050919050565b82818337600083830152505050565b60005b83811015613cf9578082015181840152602081019050613cde565b83811115613d08576000848401525b50505050565b60006002820490506001821680613d2657607f821691505b60208210811415613d3a57613d39613e18565b5b50919050565b6000613d4b82613cc2565b91507fffffffffffffffffffffffffffffffffffffffffffffffffffffffffffffffff821415613d7e57613d7d613dba565b5b600182019050919050565b6000613d9482613cc2565b9150613d9f83613cc2565b925082613daf57613dae613de9565b5b828206905092915050565b7f4e487b7100000000000000000000000000000000000000000000000000000000600052601160045260246000fd5b7f4e487b7100000000000000000000000000000000000000000000000000000000600052601260045260246000fd5b7f4e487b7100000000000000000000000000000000000000000000000000000000600052602260045260246000fd5b7f4e487b7100000000000000000000000000000000000000000000000000000000600052604160045260246000fd5b6000601f19601f8301169050919050565b613e9081613c58565b8114613e9b57600080fd5b50565b613ea781613c6a565b8114613eb257600080fd5b50565b613ebe81613c76565b8114613ec957600080fd5b50565b613ed581613cc2565b8114613ee057600080fd5b5056fe416e204e465420772f20494420257320686173206265656e206d696e74656420746f2025734142434445464748494a4b4c4d4e4f505152535455565758595a6162636465666768696a6b6c6d6e6f707172737475767778797a303132333435363738392b2fa2646970667358221220b5f9eab090b838176eb3c9cd2d1f351a4fc8eb5abbd9847146ead5c406dba16564736f6c63430008000033",
  "linkReferences": {},
  "deployedLinkReferences": {}
}