{
  "_format": "hh-sol-artifact-1",
  "contractName": "SecretLurrySociety",
  "sourceName": "contracts/SecretLurrySociety.sol",
  "abi": [
    {
      "inputs": [],
      "stateMutability": "nonpayable",
      "type": "constructor"
    },
    {
      "anonymous": false,
      "inputs": [
        {
          "indexed": true,
          "internalType": "address",
          "name": "owner",
          "type": "address"
        },
        {
          "indexed": true,
          "internalType": "address",
          "name": "approved",
          "type": "address"
        },
        {
          "indexed": true,
          "internalType": "uint256",
          "name": "tokenId",
          "type": "uint256"
        }
      ],
      "name": "Approval",
      "type": "event"
    },
    {
      "anonymous": false,
      "inputs": [
        {
          "indexed": true,
          "internalType": "address",
          "name": "owner",
          "type": "address"
        },
        {
          "indexed": true,
          "internalType": "address",
          "name": "operator",
          "type": "address"
        },
        {
          "indexed": false,
          "internalType": "bool",
          "name": "approved",
          "type": "bool"
        }
      ],
      "name": "ApprovalForAll",
      "type": "event"
    },
    {
      "anonymous": false,
      "inputs": [
        {
          "indexed": true,
          "internalType": "address",
          "name": "from",
          "type": "address"
        },
        {
          "indexed": true,
          "internalType": "address",
          "name": "to",
          "type": "address"
        },
        {
          "indexed": true,
          "internalType": "uint256",
          "name": "tokenId",
          "type": "uint256"
        }
      ],
      "name": "Transfer",
      "type": "event"
    },
    {
      "inputs": [
        {
          "internalType": "address",
          "name": "to",
          "type": "address"
        },
        {
          "internalType": "uint256",
          "name": "tokenId",
          "type": "uint256"
        }
      ],
      "name": "approve",
      "outputs": [],
      "stateMutability": "nonpayable",
      "type": "function"
    },
    {
      "inputs": [
        {
          "internalType": "address",
          "name": "owner",
          "type": "address"
        }
      ],
      "name": "balanceOf",
      "outputs": [
        {
          "internalType": "uint256",
          "name": "",
          "type": "uint256"
        }
      ],
      "stateMutability": "view",
      "type": "function"
    },
    {
      "inputs": [
        {
          "internalType": "uint256",
          "name": "tokenId",
          "type": "uint256"
        }
      ],
      "name": "getApproved",
      "outputs": [
        {
          "internalType": "address",
          "name": "",
          "type": "address"
        }
      ],
      "stateMutability": "view",
      "type": "function"
    },
    {
      "inputs": [
        {
          "internalType": "address",
          "name": "owner",
          "type": "address"
        },
        {
          "internalType": "address",
          "name": "operator",
          "type": "address"
        }
      ],
      "name": "isApprovedForAll",
      "outputs": [
        {
          "internalType": "bool",
          "name": "",
          "type": "bool"
        }
      ],
      "stateMutability": "view",
      "type": "function"
    },
    {
      "inputs": [],
      "name": "mintALurry",
      "outputs": [],
      "stateMutability": "nonpayable",
      "type": "function"
    },
    {
      "inputs": [],
      "name": "name",
      "outputs": [
        {
          "internalType": "string",
          "name": "",
          "type": "string"
        }
      ],
      "stateMutability": "view",
      "type": "function"
    },
    {
      "inputs": [
        {
          "internalType": "uint256",
          "name": "tokenId",
          "type": "uint256"
        }
      ],
      "name": "ownerOf",
      "outputs": [
        {
          "internalType": "address",
          "name": "",
          "type": "address"
        }
      ],
      "stateMutability": "view",
      "type": "function"
    },
    {
      "inputs": [
        {
          "internalType": "address",
          "name": "from",
          "type": "address"
        },
        {
          "internalType": "address",
          "name": "to",
          "type": "address"
        },
        {
          "internalType": "uint256",
          "name": "tokenId",
          "type": "uint256"
        }
      ],
      "name": "safeTransferFrom",
      "outputs": [],
      "stateMutability": "nonpayable",
      "type": "function"
    },
    {
      "inputs": [
        {
          "internalType": "address",
          "name": "from",
          "type": "address"
        },
        {
          "internalType": "address",
          "name": "to",
          "type": "address"
        },
        {
          "internalType": "uint256",
          "name": "tokenId",
          "type": "uint256"
        },
        {
          "internalType": "bytes",
          "name": "_data",
          "type": "bytes"
        }
      ],
      "name": "safeTransferFrom",
      "outputs": [],
      "stateMutability": "nonpayable",
      "type": "function"
    },
    {
      "inputs": [
        {
          "internalType": "address",
          "name": "operator",
          "type": "address"
        },
        {
          "internalType": "bool",
          "name": "approved",
          "type": "bool"
        }
      ],
      "name": "setApprovalForAll",
      "outputs": [],
      "stateMutability": "nonpayable",
      "type": "function"
    },
    {
      "inputs": [
        {
          "internalType": "bytes4",
          "name": "interfaceId",
          "type": "bytes4"
        }
      ],
      "name": "supportsInterface",
      "outputs": [
        {
          "internalType": "bool",
          "name": "",
          "type": "bool"
        }
      ],
      "stateMutability": "view",
      "type": "function"
    },
    {
      "inputs": [],
      "name": "symbol",
      "outputs": [
        {
          "internalType": "string",
          "name": "",
          "type": "string"
        }
      ],
      "stateMutability": "view",
      "type": "function"
    },
    {
      "inputs": [
        {
          "internalType": "uint256",
          "name": "tokenId",
          "type": "uint256"
        }
      ],
      "name": "tokenURI",
      "outputs": [
        {
          "internalType": "string",
          "name": "",
          "type": "string"
        }
      ],
      "stateMutability": "view",
      "type": "function"
    },
    {
      "inputs": [
        {
          "internalType": "address",
          "name": "from",
          "type": "address"
        },
        {
          "internalType": "address",
          "name": "to",
          "type": "address"
        },
        {
          "internalType": "uint256",
          "name": "tokenId",
          "type": "uint256"
        }
      ],
      "name": "transferFrom",
      "outputs": [],
      "stateMutability": "nonpayable",
      "type": "function"
    }
  ],
  "bytecode": "0x60806040523480156200001157600080fd5b506040518060400160405280601481526020017f536563726574204c7572727920536f63696574790000000000000000000000008152506040518060400160405280600581526020017f4c55525259000000000000000000000000000000000000000000000000000000815250816000908051906020019062000096929190620001cf565b508060019080519060200190620000af929190620001cf565b505050620000fd6040518060400160405280601881526020017f54686973206973206d79204e465420636f6e74726163742e00000000000000008152506200010360201b62000be71760201c565b620003ac565b620001a3816040516024016200011a9190620002c0565b6040516020818303038152906040527f41304fac000000000000000000000000000000000000000000000000000000007bffffffffffffffffffffffffffffffffffffffffffffffffffffffff19166020820180517bffffffffffffffffffffffffffffffffffffffffffffffffffffffff8381831617835250505050620001a660201b60201c565b50565b60008151905060006a636f6e736f6c652e6c6f679050602083016000808483855afa5050505050565b828054620001dd9062000336565b90600052602060002090601f0160209004810192826200020157600085556200024d565b82601f106200021c57805160ff19168380011785556200024d565b828001600101855582156200024d579182015b828111156200024c5782518255916020019190600101906200022f565b5b5090506200025c919062000260565b5090565b5b808211156200027b57600081600090555060010162000261565b5090565b60006200028c82620002e4565b620002988185620002ef565b9350620002aa81856020860162000300565b620002b5816200039b565b840191505092915050565b60006020820190508181036000830152620002dc81846200027f565b905092915050565b600081519050919050565b600082825260208201905092915050565b60005b838110156200032057808201518184015260208101905062000303565b8381111562000330576000848401525b50505050565b600060028204905060018216806200034f57607f821691505b602082108114156200036657620003656200036c565b5b50919050565b7f4e487b7100000000000000000000000000000000000000000000000000000000600052602260045260246000fd5b6000601f19601f8301169050919050565b613ec480620003bc6000396000f3fe608060405234801561001057600080fd5b50600436106100ea5760003560e01c80636352211e1161008c578063a22cb46511610066578063a22cb46514610249578063b88d4fde14610265578063c87b56dd14610281578063e985e9c5146102b1576100ea565b80636352211e146101cb57806370a08231146101fb57806395d89b411461022b576100ea565b8063095ea7b3116100c8578063095ea7b31461016d5780630bb13e711461018957806323b872dd1461019357806342842e0e146101af576100ea565b806301ffc9a7146100ef57806306fdde031461011f578063081812fc1461013d575b600080fd5b61010960048036038101906101049190612303565b6102e1565b604051610116919061374f565b60405180910390f35b6101276103c3565b604051610134919061376a565b60405180910390f35b61015760048036038101906101529190612355565b610455565b60405161016491906136e8565b60405180910390f35b610187600480360381019061018291906122c7565b6104da565b005b6101916105f2565b005b6101ad60048036038101906101a891906121c1565b61070d565b005b6101c960048036038101906101c491906121c1565b61076d565b005b6101e560048036038101906101e09190612355565b61078d565b6040516101f291906136e8565b60405180910390f35b6102156004803603810190610210919061215c565b61083f565b60405161022291906139ca565b60405180910390f35b6102336108f7565b604051610240919061376a565b60405180910390f35b610263600480360381019061025e919061228b565b610989565b005b61027f600480360381019061027a9190612210565b61099f565b005b61029b60048036038101906102969190612355565b610a01565b6040516102a8919061376a565b60405180910390f35b6102cb60048036038101906102c69190612185565b610b53565b6040516102d8919061374f565b60405180910390f35b60007f80ac58cd000000000000000000000000000000000000000000000000000000007bffffffffffffffffffffffffffffffffffffffffffffffffffffffff1916827bffffffffffffffffffffffffffffffffffffffffffffffffffffffff191614806103ac57507f5b5e139f000000000000000000000000000000000000000000000000000000007bffffffffffffffffffffffffffffffffffffffffffffffffffffffff1916827bffffffffffffffffffffffffffffffffffffffffffffffffffffffff1916145b806103bc57506103bb82610c80565b5b9050919050565b6060600080546103d290613c54565b80601f01602080910402602001604051908101604052809291908181526020018280546103fe90613c54565b801561044b5780601f106104205761010080835404028352916020019161044b565b820191906000526020600020905b81548152906001019060200180831161042e57829003601f168201915b5050505050905090565b600061046082610cea565b61049f576040517f08c379a00000000000000000000000000000000000000000000000000000000081526004016104969061392a565b60405180910390fd5b6004600083815260200190815260200160002060009054906101000a900473ffffffffffffffffffffffffffffffffffffffff169050919050565b60006104e58261078d565b90508073ffffffffffffffffffffffffffffffffffffffff168373ffffffffffffffffffffffffffffffffffffffff161415610556576040517f08c379a000000000000000000000000000000000000000000000000000000000815260040161054d9061398a565b60405180910390fd5b8073ffffffffffffffffffffffffffffffffffffffff16610575610d56565b73ffffffffffffffffffffffffffffffffffffffff1614806105a457506105a38161059e610d56565b610b53565b5b6105e3576040517f08c379a00000000000000000000000000000000000000000000000000000000081526004016105da9061386a565b60405180910390fd5b6105ed8383610d5e565b505050565b60006105fe6007610e17565b9050600061060b82610e25565b9050600c82111561061d57505061070b565b60008160405160200161063091906136b1565b604051602081830303815290604052905061067f6040518060400160405280601581526020017f0a2d2d2d2d2d2d2d2d2d2d2d2d2d2d2d2d2d2d2d2d0000000000000000000000815250610be7565b61068881610be7565b6106c66040518060400160405280601581526020017f2d2d2d2d2d2d2d2d2d2d2d2d2d2d2d2d2d2d2d2d0a0000000000000000000000815250610be7565b6106d03384611174565b6106da8382611192565b6106e46007611206565b610707604051806060016040528060258152602001613e2a60259139843361121c565b5050505b565b61071e610718610d56565b826112bb565b61075d576040517f08c379a0000000000000000000000000000000000000000000000000000000008152600401610754906139aa565b60405180910390fd5b610768838383611399565b505050565b6107888383836040518060200160405280600081525061099f565b505050565b6000806002600084815260200190815260200160002060009054906101000a900473ffffffffffffffffffffffffffffffffffffffff169050600073ffffffffffffffffffffffffffffffffffffffff168173ffffffffffffffffffffffffffffffffffffffff161415610836576040517f08c379a000000000000000000000000000000000000000000000000000000000815260040161082d906138aa565b60405180910390fd5b80915050919050565b60008073ffffffffffffffffffffffffffffffffffffffff168273ffffffffffffffffffffffffffffffffffffffff1614156108b0576040517f08c379a00000000000000000000000000000000000000000000000000000000081526004016108a79061388a565b60405180910390fd5b600360008373ffffffffffffffffffffffffffffffffffffffff1673ffffffffffffffffffffffffffffffffffffffff168152602001908152602001600020549050919050565b60606001805461090690613c54565b80601f016020809104026020016040519081016040528092919081815260200182805461093290613c54565b801561097f5780601f106109545761010080835404028352916020019161097f565b820191906000526020600020905b81548152906001019060200180831161096257829003601f168201915b5050505050905090565b61099b610994610d56565b83836115f5565b5050565b6109b06109aa610d56565b836112bb565b6109ef576040517f08c379a00000000000000000000000000000000000000000000000000000000081526004016109e6906139aa565b60405180910390fd5b6109fb84848484611762565b50505050565b6060610a0c82610cea565b610a4b576040517f08c379a0000000000000000000000000000000000000000000000000000000008152600401610a429061390a565b60405180910390fd5b6000600660008481526020019081526020016000208054610a6b90613c54565b80601f0160208091040260200160405190810160405280929190818152602001828054610a9790613c54565b8015610ae45780601f10610ab957610100808354040283529160200191610ae4565b820191906000526020600020905b815481529060010190602001808311610ac757829003601f168201915b505050505090506000610af56117be565b9050600081511415610b0b578192505050610b4e565b600082511115610b40578082604051602001610b289291906135a6565b60405160208183030381529060405292505050610b4e565b610b49846117d5565b925050505b919050565b6000600560008473ffffffffffffffffffffffffffffffffffffffff1673ffffffffffffffffffffffffffffffffffffffff16815260200190815260200160002060008373ffffffffffffffffffffffffffffffffffffffff1673ffffffffffffffffffffffffffffffffffffffff16815260200190815260200160002060009054906101000a900460ff16905092915050565b610c7d81604051602401610bfb919061376a565b6040516020818303038152906040527f41304fac000000000000000000000000000000000000000000000000000000007bffffffffffffffffffffffffffffffffffffffffffffffffffffffff19166020820180517bffffffffffffffffffffffffffffffffffffffffffffffffffffffff838183161783525050505061187c565b50565b60007f01ffc9a7000000000000000000000000000000000000000000000000000000007bffffffffffffffffffffffffffffffffffffffffffffffffffffffff1916827bffffffffffffffffffffffffffffffffffffffffffffffffffffffff1916149050919050565b60008073ffffffffffffffffffffffffffffffffffffffff166002600084815260200190815260200160002060009054906101000a900473ffffffffffffffffffffffffffffffffffffffff1673ffffffffffffffffffffffffffffffffffffffff1614159050919050565b600033905090565b816004600083815260200190815260200160002060006101000a81548173ffffffffffffffffffffffffffffffffffffffff021916908373ffffffffffffffffffffffffffffffffffffffff160217905550808273ffffffffffffffffffffffffffffffffffffffff16610dd18361078d565b73ffffffffffffffffffffffffffffffffffffffff167f8c5be1e5ebec7d5bd14f71427d1e84f3dd0314c0f7b2291e5b200ac8c7c3b92560405160405180910390a45050565b600081600001549050919050565b60606000610e4f604051602001610e3b9061369c565b6040516020818303038152906040526118a5565b90506000610e79604051602001610e659061361e565b6040516020818303038152906040526118a5565b90506000610ea3604051602001610e8f906135f4565b6040516020818303038152906040526118a5565b90506000610ecd604051602001610eb990613648565b6040516020818303038152906040526118a5565b90506000610ef7604051602001610ee390613609565b6040516020818303038152906040526118a5565b90506000610f21604051602001610f0d90613633565b6040516020818303038152906040526118a5565b90506000610f4b604051602001610f379061365d565b6040516020818303038152906040526118a5565b90506000610f75604051602001610f61906136d3565b6040516020818303038152906040526118a5565b90506000610f9f604051602001610f8b906135df565b6040516020818303038152906040526118a5565b90506000610fc9604051602001610fb5906135ca565b6040516020818303038152906040526118a5565b90506000610ff3604051602001610fdf90613672565b6040516020818303038152906040526118a5565b9050600061101d60405160200161100990613687565b6040516020818303038152906040526118a5565b9050600060405180602001604052806000815250905060008f1415611044578c905061115e565b60018f1415611055578b905061115d565b60028f1415611066578a905061115c565b60038f14156110775789905061115b565b60048f14156110885788905061115a565b60058f141561109957879050611159565b60068f14156110aa57869050611158565b60078f14156110bb57859050611157565b60088f14156110cc57849050611156565b60098f14156110dd57839050611155565b600a8f14156110ee57829050611154565b600b8f14156110ff57819050611153565b600b8f1115611152576040518060400160405280600581526020017f66616c73650000000000000000000000000000000000000000000000000000008152509d505050505050505050505050505061116f565b5b5b5b5b5b5b5b5b5b5b5b5b809d50505050505050505050505050505b919050565b61118e828260405180602001604052806000815250611a63565b5050565b61119b82610cea565b6111da576040517f08c379a00000000000000000000000000000000000000000000000000000000081526004016111d1906138ca565b60405180910390fd5b80600660008481526020019081526020016000209080519060200190611201929190611fe8565b505050565b6001816000016000828254019250508190555050565b6112b68383836040516024016112349392919061378c565b6040516020818303038152906040527fe3849f79000000000000000000000000000000000000000000000000000000007bffffffffffffffffffffffffffffffffffffffffffffffffffffffff19166020820180517bffffffffffffffffffffffffffffffffffffffffffffffffffffffff838183161783525050505061187c565b505050565b60006112c682610cea565b611305576040517f08c379a00000000000000000000000000000000000000000000000000000000081526004016112fc9061384a565b60405180910390fd5b60006113108361078d565b90508073ffffffffffffffffffffffffffffffffffffffff168473ffffffffffffffffffffffffffffffffffffffff16148061137f57508373ffffffffffffffffffffffffffffffffffffffff1661136784610455565b73ffffffffffffffffffffffffffffffffffffffff16145b80611390575061138f8185610b53565b5b91505092915050565b8273ffffffffffffffffffffffffffffffffffffffff166113b98261078d565b73ffffffffffffffffffffffffffffffffffffffff161461140f576040517f08c379a00000000000000000000000000000000000000000000000000000000081526004016114069061394a565b60405180910390fd5b600073ffffffffffffffffffffffffffffffffffffffff168273ffffffffffffffffffffffffffffffffffffffff16141561147f576040517f08c379a00000000000000000000000000000000000000000000000000000000081526004016114769061380a565b60405180910390fd5b61148a838383611abe565b611495600082610d5e565b6001600360008573ffffffffffffffffffffffffffffffffffffffff1673ffffffffffffffffffffffffffffffffffffffff16815260200190815260200160002060008282546114e59190613b6a565b925050819055506001600360008473ffffffffffffffffffffffffffffffffffffffff1673ffffffffffffffffffffffffffffffffffffffff168152602001908152602001600020600082825461153c9190613a89565b92505081905550816002600083815260200190815260200160002060006101000a81548173ffffffffffffffffffffffffffffffffffffffff021916908373ffffffffffffffffffffffffffffffffffffffff160217905550808273ffffffffffffffffffffffffffffffffffffffff168473ffffffffffffffffffffffffffffffffffffffff167fddf252ad1be2c89b69c2b068fc378daa952ba7f163c4a11628f55a4df523b3ef60405160405180910390a4505050565b8173ffffffffffffffffffffffffffffffffffffffff168373ffffffffffffffffffffffffffffffffffffffff161415611664576040517f08c379a000000000000000000000000000000000000000000000000000000000815260040161165b9061382a565b60405180910390fd5b80600560008573ffffffffffffffffffffffffffffffffffffffff1673ffffffffffffffffffffffffffffffffffffffff16815260200190815260200160002060008473ffffffffffffffffffffffffffffffffffffffff1673ffffffffffffffffffffffffffffffffffffffff16815260200190815260200160002060006101000a81548160ff0219169083151502179055508173ffffffffffffffffffffffffffffffffffffffff168373ffffffffffffffffffffffffffffffffffffffff167f17307eab39ab6107e8899845ad3d59bd9653f200f220920489ca2b5937696c3183604051611755919061374f565b60405180910390a3505050565b61176d848484611399565b61177984848484611ac3565b6117b8576040517f08c379a00000000000000000000000000000000000000000000000000000000081526004016117af906137ca565b60405180910390fd5b50505050565b606060405180602001604052806000815250905090565b60606117e082610cea565b61181f576040517f08c379a00000000000000000000000000000000000000000000000000000000081526004016118169061396a565b60405180910390fd5b60006118296117be565b905060008151116118495760405180602001604052806000815250611874565b8061185384611c5a565b6040516020016118649291906135a6565b6040516020818303038152906040525b915050919050565b60008151905060006a636f6e736f6c652e6c6f679050602083016000808483855afa5050505050565b606060008251905060008114156118ce5760405180602001604052806000815250915050611a5e565b600060036002836118df9190613a89565b6118e99190613adf565b60046118f59190613b10565b905060006020826119069190613a89565b67ffffffffffffffff811115611945577f4e487b7100000000000000000000000000000000000000000000000000000000600052604160045260246000fd5b6040519080825280601f01601f1916602001820160405280156119775781602001600182028036833780820191505090505b5090506000604051806060016040528060408152602001613e4f604091399050600181016020830160005b86811015611a1b5760038101905062ffffff818a015116603f8160121c168401518060081b905060ff603f83600c1c1686015116810190508060081b905060ff603f8360061c1686015116810190508060081b905060ff603f831686015116810190508060e01b905080845260048401935050506119a2565b506003860660018114611a355760028114611a4557611a50565b613d3d60f01b6002830352611a50565b603d60f81b60018303525b508484525050819450505050505b919050565b611a6d8383611e07565b611a7a6000848484611ac3565b611ab9576040517f08c379a0000000000000000000000000000000000000000000000000000000008152600401611ab0906137ca565b60405180910390fd5b505050565b505050565b6000611ae48473ffffffffffffffffffffffffffffffffffffffff16611fd5565b15611c4d578373ffffffffffffffffffffffffffffffffffffffff1663150b7a02611b0d610d56565b8786866040518563ffffffff1660e01b8152600401611b2f9493929190613703565b602060405180830381600087803b158015611b4957600080fd5b505af1925050508015611b7a57506040513d601f19601f82011682018060405250810190611b77919061232c565b60015b611bfd573d8060008114611baa576040519150601f19603f3d011682016040523d82523d6000602084013e611baf565b606091505b50600081511415611bf5576040517f08c379a0000000000000000000000000000000000000000000000000000000008152600401611bec906137ca565b60405180910390fd5b805181602001fd5b63150b7a0260e01b7bffffffffffffffffffffffffffffffffffffffffffffffffffffffff1916817bffffffffffffffffffffffffffffffffffffffffffffffffffffffff191614915050611c52565b600190505b949350505050565b60606000821415611ca2576040518060400160405280600181526020017f30000000000000000000000000000000000000000000000000000000000000008152509050611e02565b600082905060005b60008214611cd4578080611cbd90613c86565b915050600a82611ccd9190613adf565b9150611caa565b60008167ffffffffffffffff811115611d16577f4e487b7100000000000000000000000000000000000000000000000000000000600052604160045260246000fd5b6040519080825280601f01601f191660200182016040528015611d485781602001600182028036833780820191505090505b5090505b60008514611dfb57600182611d619190613b6a565b9150600a85611d709190613ccf565b6030611d7c9190613a89565b60f81b818381518110611db8577f4e487b7100000000000000000000000000000000000000000000000000000000600052603260045260246000fd5b60200101907effffffffffffffffffffffffffffffffffffffffffffffffffffffffffffff1916908160001a905350600a85611df49190613adf565b9450611d4c565b8093505050505b919050565b600073ffffffffffffffffffffffffffffffffffffffff168273ffffffffffffffffffffffffffffffffffffffff161415611e77576040517f08c379a0000000000000000000000000000000000000000000000000000000008152600401611e6e906138ea565b60405180910390fd5b611e8081610cea565b15611ec0576040517f08c379a0000000000000000000000000000000000000000000000000000000008152600401611eb7906137ea565b60405180910390fd5b611ecc60008383611abe565b6001600360008473ffffffffffffffffffffffffffffffffffffffff1673ffffffffffffffffffffffffffffffffffffffff1681526020019081526020016000206000828254611f1c9190613a89565b92505081905550816002600083815260200190815260200160002060006101000a81548173ffffffffffffffffffffffffffffffffffffffff021916908373ffffffffffffffffffffffffffffffffffffffff160217905550808273ffffffffffffffffffffffffffffffffffffffff16600073ffffffffffffffffffffffffffffffffffffffff167fddf252ad1be2c89b69c2b068fc378daa952ba7f163c4a11628f55a4df523b3ef60405160405180910390a45050565b600080823b905060008111915050919050565b828054611ff490613c54565b90600052602060002090601f016020900481019282612016576000855561205d565b82601f1061202f57805160ff191683800117855561205d565b8280016001018555821561205d579182015b8281111561205c578251825591602001919060010190612041565b5b50905061206a919061206e565b5090565b5b8082111561208757600081600090555060010161206f565b5090565b600061209e61209984613a16565b6139e5565b9050828152602081018484840111156120b657600080fd5b6120c1848285613c12565b509392505050565b6000813590506120d881613dcd565b92915050565b6000813590506120ed81613de4565b92915050565b60008135905061210281613dfb565b92915050565b60008151905061211781613dfb565b92915050565b600082601f83011261212e57600080fd5b813561213e84826020860161208b565b91505092915050565b60008135905061215681613e12565b92915050565b60006020828403121561216e57600080fd5b600061217c848285016120c9565b91505092915050565b6000806040838503121561219857600080fd5b60006121a6858286016120c9565b92505060206121b7858286016120c9565b9150509250929050565b6000806000606084860312156121d657600080fd5b60006121e4868287016120c9565b93505060206121f5868287016120c9565b925050604061220686828701612147565b9150509250925092565b6000806000806080858703121561222657600080fd5b6000612234878288016120c9565b9450506020612245878288016120c9565b935050604061225687828801612147565b925050606085013567ffffffffffffffff81111561227357600080fd5b61227f8782880161211d565b91505092959194509250565b6000806040838503121561229e57600080fd5b60006122ac858286016120c9565b92505060206122bd858286016120de565b9150509250929050565b600080604083850312156122da57600080fd5b60006122e8858286016120c9565b92505060206122f985828601612147565b9150509250929050565b60006020828403121561231557600080fd5b6000612323848285016120f3565b91505092915050565b60006020828403121561233e57600080fd5b600061234c84828501612108565b91505092915050565b60006020828403121561236757600080fd5b600061237584828501612147565b91505092915050565b61238781613b9e565b82525050565b61239681613bb0565b82525050565b60006123a782613a46565b6123b18185613a5c565b93506123c1818560208601613c21565b6123ca81613dbc565b840191505092915050565b60006123e082613a51565b6123ea8185613a6d565b93506123fa818560208601613c21565b61240381613dbc565b840191505092915050565b600061241982613a51565b6124238185613a7e565b9350612433818560208601613c21565b80840191505092915050565b600061244c608d83613a7e565b91507f7b226e616d65223a202253747261776275727279204c75727279222c2022646560008301527f736372697074696f6e223a20224865206973206265727279207377656574212260208301527f2c2022696d616765223a2022697066733a2f2f516d58665078657358466d446360408301527f76364a65506652794e4843704a744a783143796b5778567673366b3444656d7860608301527f343f707265766965773d31227d000000000000000000000000000000000000006080830152608d82019050919050565b600061252460b383613a7e565b91507f7b226e616d65223a20225361696c6f72204c75727279222c202264657363726960008301527f7074696f6e223a2022596f75206b6e6f7720776861742074686579207361792c60208301527f2050696e6b204c75727279206174206e696768742c207361696c6f727320646560408301527f6c69676874222c2022696d616765223a2022697066733a2f2f516d546f587a6e60608301527f443639474c6d4d3968775a4a527750594b534644474e4b5252636d4d62417a6660808301527f7a5a77366b736d3f707265766965773d31227d0000000000000000000000000060a083015260b382019050919050565b600061262260aa83613a7e565b91507f7b226e616d65223a2022437261796f6e204c75727279222c202264657363726960008301527f7074696f6e223a2022536f6d65626f6479206c65742068696d2067657420696e60208301527f746f2074686520626f78206f6620637261796f6e7320616761696e21222c202260408301527f696d616765223a2022697066733a2f2f516d56764c47394844336a477341587160608301527f4739506f797a6179386d597074446e7277474255366f59445a7a464458583f7060808301527f7265766965773d31227d0000000000000000000000000000000000000000000060a083015260aa82019050919050565b600061272060b383613a7e565b91507f7b226e616d65223a202253756e6275726e204c75727279222c2022646573637260008301527f697074696f6e223a20225468697320697320776861742068617070656e73207760208301527f68656e20796f7520666f72676574207468652073756e73637265656e204c757260408301527f72792e2e2e222c2022696d616765223a2022697066733a2f2f516d62356d654460608301527f6532434b696635534a42627a6478363542375744637a6376595652386178787160808301527f75614a6d686e5a3f707265766965773d31227d0000000000000000000000000060a083015260b382019050919050565b600061281e603283613a6d565b91507f4552433732313a207472616e7366657220746f206e6f6e20455243373231526560008301527f63656976657220696d706c656d656e74657200000000000000000000000000006020830152604082019050919050565b6000612884601c83613a6d565b91507f4552433732313a20746f6b656e20616c7265616479206d696e746564000000006000830152602082019050919050565b60006128c460a583613a7e565b91507f7b226e616d65223a202242696f68617a617264204c75727279222c202264657360008301527f6372697074696f6e223a202248652066656c6c20696e746f20736f6d6520726160208301527f64696f61637469766520776173746521204f68206e6f21222c2022696d61676560408301527f223a2022697066733a2f2f516d5a646151453369707566373235645557784d4b60608301527f5478434e757062744e3763373870346142716348624b4d38573f70726576696560808301527f773d31227d00000000000000000000000000000000000000000000000000000060a083015260a582019050919050565b60006129c2602483613a6d565b91507f4552433732313a207472616e7366657220746f20746865207a65726f2061646460008301527f72657373000000000000000000000000000000000000000000000000000000006020830152604082019050919050565b6000612a28601983613a6d565b91507f4552433732313a20617070726f766520746f2063616c6c6572000000000000006000830152602082019050919050565b6000612a68602c83613a6d565b91507f4552433732313a206f70657261746f7220717565727920666f72206e6f6e657860008301527f697374656e7420746f6b656e00000000000000000000000000000000000000006020830152604082019050919050565b6000612ace60a983613a7e565b91507f7b226e616d65223a202247656e746c656d616e204c75727279222c202264657360008301527f6372697074696f6e223a2022486520697320612064697374696e67756973686560208301527f642067656e746c656d616e2c20616e642061207363686f6c61722e222c20226960408301527f6d616765223a2022697066733a2f2f516d64344c33523743486b5376797a4c6d60608301527f4344617476746d5764503268625638667641476d31445744546d52726a3f707260808301527f65766965773d31227d000000000000000000000000000000000000000000000060a083015260a982019050919050565b6000612bcc609c83613a7e565b91507f7b226e616d65223a202246726f7a656e204c75727279222c202264657363726960008301527f7074696f6e223a2022446f20796f752077616e7420746f206275696c6420612060208301527f4c7575757572727272797979793f222c2022696d616765223a2022697066733a60408301527f2f2f516d4e726856456b47776f42734a38747a63676b743754455361354b344560608301527f61744b44753556343742776a314b33673f707265766965773d31227d000000006080830152609c82019050919050565b6000612ca4609783613a7e565b91507f7b226e616d65223a20224f47204c75727279222c20226465736372697074696f60008301527f6e223a202257696c6c20746865207265616c204c7572727920706c656173652060208301527f7374616e642075702e222c2022696d616765223a2022697066733a2f2f516d6260408301527f515a6f3855367a396f7159753734675665534348665a44705a4b54627655563860608301527f715770593377444c6d41693f707265766965773d31227d0000000000000000006080830152609782019050919050565b6000612d7c603883613a6d565b91507f4552433732313a20617070726f76652063616c6c6572206973206e6f74206f7760008301527f6e6572206e6f7220617070726f76656420666f7220616c6c00000000000000006020830152604082019050919050565b6000612de2602a83613a6d565b91507f4552433732313a2062616c616e636520717565727920666f7220746865207a6560008301527f726f2061646472657373000000000000000000000000000000000000000000006020830152604082019050919050565b6000612e48602983613a6d565b91507f4552433732313a206f776e657220717565727920666f72206e6f6e657869737460008301527f656e7420746f6b656e00000000000000000000000000000000000000000000006020830152604082019050919050565b6000612eae602e83613a6d565b91507f45524337323155524953746f726167653a2055524920736574206f66206e6f6e60008301527f6578697374656e7420746f6b656e0000000000000000000000000000000000006020830152604082019050919050565b6000612f14609b83613a7e565b91507f7b226e616d65223a2022556e6465727761746572204c75727279222c2022646560008301527f736372697074696f6e223a20224c75727279206c6f76657320646976696e672060208301527f666f7220747265617375726521222c2022696d616765223a2022697066733a2f60408301527f2f516d5073795a65536b357444486d54484a476a424b36746e756d6d63594e5760608301527f3472314c5263344e366f723143614d3f707265766965773d31227d00000000006080830152609b82019050919050565b6000612fec602083613a6d565b91507f4552433732313a206d696e7420746f20746865207a65726f20616464726573736000830152602082019050919050565b600061302c603183613a6d565b91507f45524337323155524953746f726167653a2055524920717565727920666f722060008301527f6e6f6e6578697374656e7420746f6b656e0000000000000000000000000000006020830152604082019050919050565b6000613092602c83613a6d565b91507f4552433732313a20617070726f76656420717565727920666f72206e6f6e657860008301527f697374656e7420746f6b656e00000000000000000000000000000000000000006020830152604082019050919050565b60006130f860a683613a7e565b91507f7b226e616d65223a202257617465726d656c6f6e204c75727279222c2022646560008301527f736372697074696f6e223a2022546173746573206c696b652077617465726d6560208301527f6c6f6e2c206f6e20612073756d6d6572206576656e696e67222c2022696d616760408301527f65223a2022697066733a2f2f516d6335614667697177324e41585a5644597a4460608301527f5751734b386673795445416866444479614273633869414a48663f707265766960808301527f65773d31227d000000000000000000000000000000000000000000000000000060a083015260a682019050919050565b60006131f6602983613a6d565b91507f4552433732313a207472616e73666572206f6620746f6b656e2074686174206960008301527f73206e6f74206f776e00000000000000000000000000000000000000000000006020830152604082019050919050565b600061325c602f83613a6d565b91507f4552433732314d657461646174613a2055524920717565727920666f72206e6f60008301527f6e6578697374656e7420746f6b656e00000000000000000000000000000000006020830152604082019050919050565b60006132c2602183613a6d565b91507f4552433732313a20617070726f76616c20746f2063757272656e74206f776e6560008301527f72000000000000000000000000000000000000000000000000000000000000006020830152604082019050919050565b6000613328608c83613a7e565b91507f7b226e616d65223a20223344204d6f766965204c75727279222c20226465736360008301527f72697074696f6e223a20224865206c6f76657320746865206d6f76696573222c60208301527f2022696d616765223a2022697066733a2f2f516d5967326f707837324243316760408301527f724c6f734d423131444c6a43444441366e5a35426d54414a4853684a7662675060608301527f3f707265766965773d31227d00000000000000000000000000000000000000006080830152608c82019050919050565b6000613400601d83613a7e565b91507f646174613a6170706c69636174696f6e2f6a736f6e3b6261736536342c0000006000830152601d82019050919050565b6000613440603183613a6d565b91507f4552433732313a207472616e736665722063616c6c6572206973206e6f74206f60008301527f776e6572206e6f7220617070726f7665640000000000000000000000000000006020830152604082019050919050565b60006134a660af83613a7e565b91507f7b226e616d65223a20224469677569736564204c75727279222c20226465736360008301527f72697074696f6e223a202253686868682e2e2e20686520697320696e2064697360208301527f67756973652120547279206e6f7420746f20626c6f772068697320636f76657260408301527f2e222c2022696d616765223a2022697066733a2f2f516d51386e63413239317360608301527f785558584634536e45624153776438553451504441644354584a58775978365a60808301527f4b51773f707265766965773d31227d000000000000000000000000000000000060a083015260af82019050919050565b6135a081613c08565b82525050565b60006135b2828561240e565b91506135be828461240e565b91508190509392505050565b60006135d58261243f565b9150819050919050565b60006135ea82612517565b9150819050919050565b60006135ff82612615565b9150819050919050565b600061361482612713565b9150819050919050565b6000613629826128b7565b9150819050919050565b600061363e82612ac1565b9150819050919050565b600061365382612bbf565b9150819050919050565b600061366882612c97565b9150819050919050565b600061367d82612f07565b9150819050919050565b6000613692826130eb565b9150819050919050565b60006136a78261331b565b9150819050919050565b60006136bc826133f3565b91506136c8828461240e565b915081905092915050565b60006136de82613499565b9150819050919050565b60006020820190506136fd600083018461237e565b92915050565b6000608082019050613718600083018761237e565b613725602083018661237e565b6137326040830185613597565b8181036060830152613744818461239c565b905095945050505050565b6000602082019050613764600083018461238d565b92915050565b6000602082019050818103600083015261378481846123d5565b905092915050565b600060608201905081810360008301526137a681866123d5565b90506137b56020830185613597565b6137c2604083018461237e565b949350505050565b600060208201905081810360008301526137e381612811565b9050919050565b6000602082019050818103600083015261380381612877565b9050919050565b60006020820190508181036000830152613823816129b5565b9050919050565b6000602082019050818103600083015261384381612a1b565b9050919050565b6000602082019050818103600083015261386381612a5b565b9050919050565b6000602082019050818103600083015261388381612d6f565b9050919050565b600060208201905081810360008301526138a381612dd5565b9050919050565b600060208201905081810360008301526138c381612e3b565b9050919050565b600060208201905081810360008301526138e381612ea1565b9050919050565b6000602082019050818103600083015261390381612fdf565b9050919050565b600060208201905081810360008301526139238161301f565b9050919050565b6000602082019050818103600083015261394381613085565b9050919050565b60006020820190508181036000830152613963816131e9565b9050919050565b600060208201905081810360008301526139838161324f565b9050919050565b600060208201905081810360008301526139a3816132b5565b9050919050565b600060208201905081810360008301526139c381613433565b9050919050565b60006020820190506139df6000830184613597565b92915050565b6000604051905081810181811067ffffffffffffffff82111715613a0c57613a0b613d8d565b5b8060405250919050565b600067ffffffffffffffff821115613a3157613a30613d8d565b5b601f19601f8301169050602081019050919050565b600081519050919050565b600081519050919050565b600082825260208201905092915050565b600082825260208201905092915050565b600081905092915050565b6000613a9482613c08565b9150613a9f83613c08565b9250827fffffffffffffffffffffffffffffffffffffffffffffffffffffffffffffffff03821115613ad457613ad3613d00565b5b828201905092915050565b6000613aea82613c08565b9150613af583613c08565b925082613b0557613b04613d2f565b5b828204905092915050565b6000613b1b82613c08565b9150613b2683613c08565b9250817fffffffffffffffffffffffffffffffffffffffffffffffffffffffffffffffff0483118215151615613b5f57613b5e613d00565b5b828202905092915050565b6000613b7582613c08565b9150613b8083613c08565b925082821015613b9357613b92613d00565b5b828203905092915050565b6000613ba982613be8565b9050919050565b60008115159050919050565b60007fffffffff0000000000000000000000000000000000000000000000000000000082169050919050565b600073ffffffffffffffffffffffffffffffffffffffff82169050919050565b6000819050919050565b82818337600083830152505050565b60005b83811015613c3f578082015181840152602081019050613c24565b83811115613c4e576000848401525b50505050565b60006002820490506001821680613c6c57607f821691505b60208210811415613c8057613c7f613d5e565b5b50919050565b6000613c9182613c08565b91507fffffffffffffffffffffffffffffffffffffffffffffffffffffffffffffffff821415613cc457613cc3613d00565b5b600182019050919050565b6000613cda82613c08565b9150613ce583613c08565b925082613cf557613cf4613d2f565b5b828206905092915050565b7f4e487b7100000000000000000000000000000000000000000000000000000000600052601160045260246000fd5b7f4e487b7100000000000000000000000000000000000000000000000000000000600052601260045260246000fd5b7f4e487b7100000000000000000000000000000000000000000000000000000000600052602260045260246000fd5b7f4e487b7100000000000000000000000000000000000000000000000000000000600052604160045260246000fd5b6000601f19601f8301169050919050565b613dd681613b9e565b8114613de157600080fd5b50565b613ded81613bb0565b8114613df857600080fd5b50565b613e0481613bbc565b8114613e0f57600080fd5b50565b613e1b81613c08565b8114613e2657600080fd5b5056fe416e204e465420772f20494420257320686173206265656e206d696e74656420746f2025734142434445464748494a4b4c4d4e4f505152535455565758595a6162636465666768696a6b6c6d6e6f707172737475767778797a303132333435363738392b2fa264697066735822122064140352b7a52c2dfab7ec903508dc3fe2fb10e8307d5919e250160be747479c64736f6c63430008000033",
  "linkReferences": {},
  "deployedLinkReferences": {}
}